:020000040800F2
:10000000A8120020D500000875360008852F0008CA
:1000100000000000000000000000000000000000E0
:10002000000000000000000000000000433B00084A
:100030000000000000000000653700081D3F0008B8
:10004000E700000800000000E7000008E7000008E3
:10005000E7000008E7000008E7000008E7000008E4
:1000600000000000E7000008E7000008E7000008C3
:10007000E7000008E7000008E700000800000000B3
:10008000E7000008E7000008E70000082940000832
:10009000E7000008E7000008E7000008E7000008A4
:1000A000E7000008E7000008E70000089D45000899
:1000B000E7000008E700000800000000E700000873
:1000C0000348854600F01CFC00480047F550000836
:1000D000A81200200448804704480047FEE7FEE7D6
:1000E000FEE7FEE7FEE7FEE7C53F0008C1000008A7
:1000F00030B50B46014600202022012409E00D46C0
:10010000D5409D4205D31D469540491B2546954047
:1001100040191546521E002DF1DC30BD10B5202AC5
:1001200004DB0846203AD040002110BD0B46D340E6
:10013000D0402024A21A91400843194610BD03461E
:100140000B439B0703D009E008C9121F08C0042A0B
:10015000FAD203E00B780370401C491C521EF9D2FE
:100160007047D2B201E00270401C491EFBD27047BA
:100170000022F6E710B513460A4604461946FFF773
:10018000F0FF204610BD03460A780270401C491C4F
:10019000002AF9D118467047F8B502464A40D40FF4
:1001A00042004B0052085B089A4202D202460846BF
:1001B00011464A0023D0C30D4A00DDB2120EAD1A1B
:1001C000202D35DA49020126490AF6058A19002C44
:1001D00000D0524220214F1B1146B9402A4110182D
:1001E000C20D9A4221D0002C17D0012D08DCDA056F
:1001F000801AD20F8019D207DBB200F0B4FAF8BD32
:10020000DA05801A012340001B06C01880185A42E4
:100210008018CA0F1043490007E04908C20711437C
:10022000DA05801A80194008801800F094FAF8BDA9
:1002300061000122511A001BF7E70122D207514049
:10024000AAE70122D2075040A6E70000F0B5074612
:100250000846584087B0C00F049048000E46590029
:1002600040084908BC1A884105D2384631461E4626
:1002700017460B4602465800400810434CD0300D3C
:10028000039040055900400D490D0590401A029019
:10029000402872DA18030121000B09050843019078
:1002A00004980092002805D001995242002088410C
:1002B00000920190029840210A1A0199009800F0DA
:1002C00027FA05460C466B4607CB00F031FAC019F9
:1002D0007141039A0E0D0023D71756401A467A40F3
:1002E000164344D0049A002A2DD0029A012A039A78
:1002F00015DC1205C01A914101263605001C71411A
:10030000D20F059ED2070093019202962A462346F9
:1003100000F06FFA07B0F0BD38463146FAE716052F
:10032000224A0F46B218C01AB74101210905001C24
:100330004F4100187F41114618187941E20F1043D0
:100340006D19644113E0E2076D0815436408C207A4
:100350001443039A01261205C01A91413605001C68
:100360007141CE07400830434908C01851412A4620
:10037000234600F031FACDE7FFE704980122400060
:10038000C117121A00238B4104983146C417381A3A
:10039000A141EEE730B40124E407634030BC55E7E7
:1003A00030B40124E407614030BC4FE70000E0FFB7
:1003B000F0B51FB488B00B990998002448400999FA
:1003C000C00F490049080991C0070B9900904900E6
:1003D00049080B9109990898A64608431CD00B9927
:1003E0000A98084318D0099801244000420D48009B
:1003F000410D099824050003000B204309900B9838
:100400000003000B20430B9050181C494018002299
:1004100001901446104605E0002001460DB0F0BDE5
:10042000032801DA034600E003239C46C11A0AAE02
:100430000AE05F0008ADED5B4F00F75B7D430027EE
:10044000AA187C41491C5B1E6145F2DD410004ABEA
:100450005A522104120C0A43240C401C0828DFDBEA
:10046000019802900099704601910090059B049AB2
:100470000799069800F0BDF9D0E700000DFCFFFFDA
:10048000F0B50C465C4085B0E40FE40703944C00E3
:100490000026640859009446490802460296224301
:1004A00021D062460A431ED06200570D4A000E0357
:1004B0002303550D012402462C492405781B1B0BF0
:1004C000360B401823432643614600901C46501AC1
:1004D000B44103D30098401C009002E092180098A9
:1004E0005B41002803DA0020014605B0F0BD002082
:1004F000012109050746864611E064461D46141B86
:10050000B54106D36546521BB341744607430C43BD
:10051000A646CD0740084908284392185B41054686
:100520000D43EAD11046184313D060461946504097
:100530007140084306D06046101AB34106D201222A
:10054000002306E000220123DB0702E00122D24360
:100550005310009874460105381C6141029C039DAC
:100560000019694100F038F9BFE70000FD03000001
:1005700070B54B005B0803430BD04B005C0D0026AD
:1005800033466542B341D417AD1AA34102DB0020C4
:10059000014670BD12053018514170BD0EB5C2172D
:1005A000C10F5040CA0740180021054B0293019229
:1005B00000910A460B4600F01CF903B000BD000094
:1005C000330400000EB505490291002100910A464E
:1005D0000B46019100F00DF903B000BD330400009B
:1005E000C20F410040020123400ADB05D207090E79
:1005F000C0187F2901DA00207047962903DC962372
:10060000591AC84001E096398840002AF4D0404287
:10061000704700004A0009030123090B1B05194319
:10062000094B10B5520D9A4201DA002010BD064B5D
:1006300034339A4203DC9A1AFFF770FD10BD034968
:100640005118884010BD0000FF030000CDFBFFFFE4
:10065000C20FD207400040080BD0C10D0723DB01B9
:10066000C91840020905400A1143C2084007114356
:100670007047002001467047CB0FDB07490010B5DB
:10068000490802460A4307D00A0D07240903E4017A
:10069000090B121B002A01DC002010BDC900440F09
:1006A0000C43C100E018D205801800F054F810BDCA
:1006B000F0B51FB40646002082B0054640240191E3
:1006C00000901BE0019922460F463046FFF726FDB9
:1006D000049A059B801A994110D310461946224668
:1006E00000F016F8361A8F410197224601200021AA
:1006F000009F00F00DF838184D4100902046641E10
:100700000028DFDC019B00982946324607B0F0BD87
:1007100010B5202A04DB0146203A9140002010BD8C
:10072000914020239C1A0346E3401943904010BD9A
:1007300010B5202A06DBCB170846203A1041C11716
:100740000B4306E00B461341D0402024A21A9140EF
:100750000843194610BD002904DA401C490001D1A4
:1007600040084000704770B40024050C05D11024E7
:10077000000402D1002921D01124050E01D100026C
:100780000834050F01D10001241D850F01D180001F
:10079000A41C002801DB4000641C002908D020258F
:1007A0002E1B0D46F540A14000D0012129430843EE
:1007B00001061B1B000ADB1D02D5002070BC704720
:1007C000DB05181880180029F8DA401C4900F5D11B
:1007D00070BC40084000704710B5002B08DA0024B8
:1007E000401C614192185B411A4301D1400840000E
:1007F00010BDF0B51FB482B005460C0003D008460A
:1008000003F00EFF02E003F00BFF203002460090E1
:1008100021462846FFF77CFF049B059A04460F46B5
:1008200018431143084314D0184610431BD00098B6
:1008300040210A1A18460599FFF770FC05460E4636
:10084000009A05990498FFF763FF084305D001203B
:1008500004E02046394607B0F0BD0020C11705432B
:100860000E432C43374300990E986305401A7905CF
:10087000E40A00220C43FD0A0A3002D5002001469A
:10088000E9E70105101969410C9C0D9D00196941AA
:10089000FFF7A2FFDFE700004A0009030123090B6D
:1008A0001B0519430A4B10B5520D9A4202DA00207B
:1008B000014610BD064B34339A4203DC9A1AFFF707
:1008C0002DFC10BD034BD218FFF722FF10BD000016
:1008D000FF030000CDFBFFFF10B5002904DB01245E
:1008E000E40740428C412146002B04DB1C460123D7
:1008F000DB075242A341994200D1904210BD000053
:10090000064C0125064E05E0E36807CC2B430C3C62
:1009100098471034B442F7D3FFF7D6FB7C010108A7
:100920009C010108F8B50446002000902068816809
:100930008907890F012905D10168C9072CD1C16830
:10094000090429D48168154A10261140012500297F
:1009500015D1816829438160124811490068FFF769
:10096000C7FB00E0401E00900028FBD100F0FCFD1A
:1009700007460CE000F0F8FDC01B022807D9606CA8
:1009800030436064A06C2843A0640120F8BD206857
:100990000068C043C007EDD10020F8BD17000080FB
:1009A00040420F001C00002010B5012003F08EF81B
:1009B000052000F09DFB012003F092F8012003F0D8
:1009C00099F8012003F0A0F80024002004F00AFCAC
:1009D000641C362CF9DB002003F078F8012003F0CA
:1009E00075F810BD002004490122034652020B5441
:1009F000401C9042FBDB70476803002010B50A21C1
:100A0000FFF776FB00014018C0B210BD30B50F49AA
:100A10001B22920110248A1800280FD01B230128C2
:100A200010D0182402280DD02025032804D012232A
:100A3000042807D0052804D1158104E0148136204C
:100A4000887030BD14818B7030BD000068050020B7
:100A5000FEB5054600200C460190009070492868BC
:100A6000884203D06F4970A004F069FA2268002A16
:100A700026D0012A24D0022A22D0032A20D0042AF8
:100A80001ED0052A1CD0062A1AD0072A18D0082AF8
:100A900016D0092A14D00A2A12D00B2A10D00C2AF8
:100AA0000ED00D2A0CD00E2A0AD00F2A08D0102AF8
:100AB00006D0112A04D05B495BA0491C04F03FFA20
:100AC000012160680903884207D0491C884204D08C
:100AD000544955A0891C04F032FA0127A86B3F073E
:100AE000B84223D0012821D002281FD003281DD0CE
:100AF00004281BD0052819D0062817D0072815D0A0
:100B0000A068B84212D0012810D002280ED00328C5
:100B10000CD004280AD0052808D0062806D00728BB
:100B200004D0404940A0891D04F009FA2E46403601
:100B30003078012837D00120307029688A68520740
:100B400063D4474A636893428A6A237849D09840BD
:100B500002438A62A86BB8421FD001281DD0022828
:100B60001BD0032819D0042817D0052815D0062833
:100B700013D0072811D02868A16842695207520F84
:100B800091420AD04169C908C90041612868416998
:100B9000227A5207520F114341612168102904D073
:100BA000112902D037E00220FEBD2E4882681029AC
:100BB00007D0012189050A4382602068102803D0EC
:100BC00029E00121C905F6E7284827490068FFF711
:100BD0008FFA0A21484300E0401E00900028FBD114
:100BE00019E0984082438A622168102901D01129B6
:100BF00011D11C488268102904D0012189058A433B
:100C0000826008E00121C905F9E7686C20210843EA
:100C1000686401200190002030700198FEBD000042
:100C200000240140510600002E2E2F447269766583
:100C300072732F53544D3332463078785F48414CAD
:100C40005F4472697665722F5372632F73746D33CC
:100C500032663078785F68616C5F6164632E630030
:100C6000011000000027014040420F001C0000203E
:100C700010B5044600680549884203D0044905A020
:100C800004F05DF92068006C10BD000000240140F4
:100C9000650500002E2E2F447269766572732F53FE
:100CA000544D3332463078785F48414C5F44726926
:100CB0007665722F5372632F73746D33326630789A
:100CC000785F68616C5F6164632E6300F8B500252E
:100CD000044600287DD0AB492068884204D0FF211B
:100CE0007431A9A004F02BF9606800280BD0012111
:100CF0008907884207D04900884204D0FF21753116
:100D0000A1A004F01CF9A06800280AD0082808D087
:100D1000102806D0182804D0FF2176319AA004F0BC
:100D20000EF9E068002806D0202804D0FF21773192
:100D300095A004F004F92069012806D0022804D007
:100D4000FF21783190A004F0FAF8206A002806D03C
:100D5000012804D0FF2179318BA004F0F0F8606AFB
:100D6000002806D0012804D0FF217A3186A004F0A3
:100D7000E6F8E06A00280FD00121890288420BD0F2
:100D80004900884208D003218902884204D0FF210B
:100D90007B317DA004F0D3F8FF27FF26A06A01373E
:100DA000C23600280CD040280AD0C02808D0B8424B
:100DB00006D0B04204D0FF217C3173A004F0BFF80C
:100DC000206B002808D0012806D0FF217D316EA0BD
:100DD00000E02DE004F0B3F86069042806D008288C
:100DE00004D0FF217E3168A004F0A9F8606B0128CF
:100DF00006D0002804D0FF217F3163A004F09FF8C3
:100E0000A069002806D0012804D0FF2180315EA00F
:100E100004F095F8E069002806D0012804D0FF21ED
:100E2000813159A004F08BF8606C002802D008E0F2
:100E30000120F8BD0020A06440210855204600F0A4
:100E4000C3F8606CC00671D42068816849076DD40E
:100E5000616C0222B9431143616481688907890F7B
:100E6000012905D10168C9070FD1C16809040CD453
:100E7000C16818239943A3681943C16020680169B8
:100E8000636889008908194301612068C1684C4B77
:100E90001940C160A069E1698003C9030843216A60
:100EA0004B031843636B012B02D001231B0300E0AB
:100EB00000231843E36818432369022B09D0002359
:100EC0001843236B676A5B0018430123012F02D08C
:100ED0000AE00423F4E7002924D0616C2027394379
:100EE0006164A16C1943A164A16AB14202D0E66AAF
:100EF000314308432168CE680643CE600126A16BCA
:100F00003607B14213D0012911D002290FD003298D
:100F10000DD004290BD0052909D0062907D00729AF
:100F200005D010E0012109040843DDE724E0216831
:100F30004E69F608F6004E6121684E69278F7F07DB
:100F40007F0F3E434E612168C9681E4E3140814289
:100F500007D10020A064606C80088000401C6064A1
:100F600008E0606C1021904308436064A06C184353
:100F7000A06401252846F8BD606C10210843606418
:100F8000F7E70000002401402E2E2F447269766599
:100F900072732F53544D3332463078785F48414C4A
:100FA0005F4472697665722F5372632F73746D3369
:100FB00032663078785F68616C5F6164632E6300CD
:100FC0001902FEFFE7FF3F8330B587B004461421C6
:100FD0006846FFF7CDF816492068884226D11548A3
:100FE000826941150A43826182690A400592426919
:100FF00009020A43426142690A4005924269490076
:101000000A4342614069032408400590802000257E
:101010006A4631C209206946C00600F025F90094ED
:10102000694605480295019400F01EF907B030BDED
:1010300000240140001002400004004870B504463E
:1010400000681A490025884203D0194919A003F005
:1010500076FF20688068400724D4264640363078E2
:1010600001280AD001203070E069012807D020460D
:10107000FFF758FC050002D015E0022070BD606C3F
:101080001A490840FF210131084360640020A06430
:10109000307021681C200860206881680422114398
:1010A000816000E00225284670BD00000024014058
:1010B000FB0200002E2E2F447269766572732F5347
:1010C000544D3332463078785F48414C5F44726902
:1010D0007665722F5372632F73746D333266307876
:1010E000785F68616C5F6164632E6300FEF1FFFFEF
:1010F00031B500F039FA009C0546601C00D0641C34
:1011000000F032FA401BA042FAD338BDF8B50927E7
:101110000025FF060E460446B84210D03D488442E2
:101120000DD03D4884420AD03C48844207D03C4818
:10113000844204D0FF213F313AA003F000FF300485
:10114000000C01D0300C60D0FF21403135A003F0FD
:10115000F6FE5AE00120A8408446304054D0226870
:101160006B00032199408A438E462260E90889007A
:101170000A190092136A6A07D10E0F228A4093431C
:10118000009A1362A26871468A43A260616862464F
:1011900091436160E26871468A43E260AA0830497F
:1011A000920051188B688C46A9070A0F0F219140B5
:1011B0008E461940BC4201D100230FE0154B9C42E2
:1011C00001D101230AE0144B9C4201D1022305E026
:1011D000124B9C4201D1032300E0052393408B4234
:1011E00012D16246926871468A4361468A601D49FF
:1011F0000A6882430A604A6882434A608A68824376
:101200008A60CA688243CA606D1C3046E840A1D13A
:10121000F8BD00000004004800080048000C004829
:10122000001400482E2E2F447269766572732F5376
:10123000544D3332463078785F48414C5F44726990
:101240007665722F5372632F73746D333266307804
:10125000785F68616C5F6770696F2E6300000000E3
:101260000000014000040140FEB5044609200027AB
:10127000C0060D4684420FD0844884420CD0844876
:10128000844209D08348844206D08348844203D0F4
:10129000C12182A003F053FE28680104090C01D08B
:1012A000000C03D0C2217DA003F049FE686800282D
:1012B0001FD001281DD011281BD0022819D01228B8
:1012C00017D08549884214D08449884211D0844976
:1012D00088420ED0834988420BD08349884208D087
:1012E0008249884205D0032803D0C3216BA003F0B4
:1012F00026FEA868002807D00128FCD00228FAD0D2
:10130000C42166A003F01BFEBAE00120B8400E46DF
:10131000029006407ED06868022801D0122827D1AA
:101320000920C00684420FD0584884420CD0584847
:10133000844209D05748844206D05748844203D09B
:10134000D32156A003F0FBFD2869062803D9D42138
:1013500052A003F0F4FDF80880000319186A790719
:10136000CA0E0F21914088432969914001431962B7
:1013700021687A00032090408143019200902879EF
:101380008007800F9040084320606868012805D0DE
:10139000022803D0112801D012281BD1E8680028A8
:1013A00007D0012805D0032803D0E8213BA003F093
:1013B000C6FDA0680099019A8843E96891400143FD
:1013C000A1606168029881432879C006C00FB840C7
:1013D00008436060E0680099019A8843A9689140D9
:1013E0000143E1606868C00049D541488169012234
:1013F000114381618069B908104000903D4889001F
:101400000B189868B9070A0F0F21914088430921EA
:10141000C90600E033E08C4201D100210FE01B49F6
:101420008C4201D101210AE019498C4201D10221EB
:1014300005E018498C4201D1032100E005219140CB
:10144000014399602C4801686A68B143D20300D512
:101450003143016041686A68B143920300D531436A
:10146000416081686A68B143D20200D5314381602E
:10147000C1686A68B143920200D53143C1607F1CE4
:101480002E683146FE4000D03FE7FEBD0004004814
:1014900000080048000C0048001400482E2E2F447D
:1014A0007269766572732F53544D333246307878B3
:1014B0005F48414C5F4472697665722F5372632FA7
:1014C00073746D3332663078785F68616C5F677013
:1014D000696F2E6300000000000011100000211051
:1014E0000000311000001210000022100000321025
:1014F00000100240000001400004014070B5154694
:101500000C00064604D1FF21AD3108A003F017FD01
:10151000002D08D0012D04D0FF21AE3103A003F02F
:101520000EFDB46170BDB46270BD00002E2E2F445C
:101530007269766572732F53544D33324630787822
:101540005F48414C5F4472697665722F5372632F16
:1015500073746D3332663078785F68616C5F677082
:10156000696F2E63000000000148006870470000AA
:101570001800002070B50D46044600681B498842DB
:1015800006D01B49884203D072211AA003F0D7FC71
:1015900001263603002D05D0B54203D0732115A0D6
:1015A00003F0CDFC20464030417820291CD1017841
:1015B000012919D001210170242242702268136888
:1015C0008B43136022681368B34313602268136867
:1015D0002B431360226813680B4313602021417072
:1015E00000210170084670BD022070BD005400400B
:1015F000005800402E2E2F447269766572732F5367
:10160000544D3332463078785F48414C5F447269BC
:101610007665722F5372632F73746D333266307830
:10162000785F68616C5F6932635F65782E63000084
:1016300070B50D46044600681949884206D019491C
:10164000884203D0A02118A003F079FC0F2D03D904
:10165000A12115A003F073FC2046403041782029D9
:101660001CD10178012919D0012303702421417074
:1016700021680A689A430A60266832680F210902C5
:101680008A4329021143316021680A681A430A60BB
:101690002021417000210170084670BD022070BDFC
:1016A00000540040005800402E2E2F447269766589
:1016B00072732F53544D3332463078785F48414C23
:1016C0005F4472697665722F5372632F73746D3342
:1016D00032663078785F68616C5F6932635F657825
:1016E0002E630000F8B5040067D05A49206888428C
:1016F00007D05949884204D0FF219E3157A003F0FA
:101700001EFC6449A068884204D9FF219F3153A080
:1017100003F015FCE068012806D0022804D0FF2160
:10172000A0314EA003F00BFC01262069F60300282F
:1017300006D0B04204D0FF21A13148A003F0FFFB46
:101740006069FF2804D9FF21A23144A003F0F7FB10
:10175000A069002812D0012810D002280ED003283A
:101760000CD004280AD0052808D0062806D007285F
:1017700004D0FF21A33139A003F0E1FBE069002888
:1017800008D00121C904884204D0FF21A43133A02C
:1017900003F0D5FB206A002808D0012149048842C3
:1017A00004D0FF21A5312DA003F0C9FB254640350B
:1017B00068780027002802D005E00120F8BD2F70CE
:1017C000204600F083F924206870206801684908E9
:1017D000490001600F21606809068843216808619B
:1017E00020688168B1438160E0680128A06808D062
:1017F00021218902084321688860E068022802D01C
:1018000005E03043F7E701202168C0024860206806
:101810004168214A114341602068C168B143C160F9
:10182000616920690843A169090208432168C86009
:10183000216AE06908432168086020680168012284
:10184000114301606764202068702763AF70002037
:10185000F8BD000000540040005800402E2E2F44D8
:101860007269766572732F53544D333246307878EF
:101870005F48414C5F4472697665722F5372632FE3
:1018800073746D3332663078785F68616C5F69328B
:10189000632E6300FF03000000800002FFB50546D1
:1018A00004464035687881B020287ED12878012808
:1018B0007BD001202870FFF757FE074601220090D9
:1018C0001923D103204601F00FFC00283FD122202C
:1018D00068701020A87000266664039860620498FF
:1018E00060856663618D09208002FF2903D9FF228C
:1018F0002285009034E0618D2185009036E02046FD
:10190000029901F08BFB36E001F012FC002803D0B5
:10191000606C042847D01AE02068416A606A421C63
:1019200062620170208D401E80B22085618D491E4B
:10193000618500281FD1608D00281CD000970022EF
:10194000802120460A9B01F0CFFB002802D0032013
:1019500005B0F0BD608DFF2805D9FF2222850096D5
:1019600001231B06CBE7608D20850096208D012387
:10197000C2B25B06C3E7608D0A9900283A4620464A
:10198000C2D101F011FC0028C2D121682020C86119
:1019900021684A68064B1A404A606870AE702E7023
:1019A0000020D5E701E00120D2E70220D0E70000C7
:1019B00000E800FEFFB5054604464035687881B072
:1019C00020287ED1287801287BD001202870FFF7BD
:1019D000CBFD0746012200901923D103204601F0D8
:1019E00083FB00283FD1212068701020A8700026BA
:1019F000666403986062049860856663618D012067
:101A00004003FF2903D9FF222285009034E0618D35
:101A10002185009036E02046029901F0FFFA36E079
:101A200001F0E9FB002803D0606C042847D01AE0DD
:101A3000606A411C6162017820688162608D401E8D
:101A40006085208D401E0004000C20851FD1608D14
:101A500000281CD000970022802120460A9B01F01C
:101A600043FB002802D0032005B0F0BD608DFF28A5
:101A700005D9FF222285009601231B06CBE7608D46
:101A800020850096208D0123C2B25B06C3E7608DDE
:101A90000A9900283A462046C2D101F085FB002869
:101AA000C2D121682020C86121684A68064B1A40CB
:101AB0004A606870AE702E700020D5E701E001200A
:101AC000D2E70220D0E7000000E800FE10B586B0A3
:101AD000044614216846FEF74BFB124920688842F1
:101AE0001ED1114C6169012080040143616161696B
:101AF00001400591C020009012200190002002902A
:101B0000032003900120049069460848FFF7ACFBCE
:101B1000E169012040050143E161E169014005916E
:101B200006B010BD00540040001002400004004800
:101B300002480168491C016070470000180000203D
:101B400010B506480168102211430160002000F022
:101B500007F800F017F8002010BD00000020024038
:101B600010B5044600F08CFA7D21C900FEF7C0FADA
:101B700000F0D0FD00222146501E00F073F8002036
:101B800010BD000008B50848816901221143816138
:101B9000816911400091C26901040A43C261C069B0
:101BA0000840009008BD00000010024010B504007D
:101BB00003D5BB2104A003F0C2F9E106C90E012040
:101BC00088401049086010BD2E2E2F44726976653A
:101BD00072732F53544D3332463078785F48414CFE
:101BE0005F4472697665722F5372632F73746D331D
:101BF00032663078785F68616C5F636F72746578A5
:101C00002E63000080E100E010B5040003D5AB2195
:101C100004A003F094F9E106C90E012088401049A0
:101C2000086010BD2E2E2F447269766572732F5393
:101C3000544D3332463078785F48414C5F44726986
:101C40007665722F5372632F73746D3332663078FA
:101C5000785F68616C5F636F727465782E630000F3
:101C600000E100E070B50C460546042903D39B2132
:101C700003A003F064F92146284601F0FDFC70BD85
:101C80002E2E2F447269766572732F53544D333262
:101C9000463078785F48414C5F4472697665722FB0
:101CA0005372632F73746D3332663078785F686176
:101CB0006C5F636F727465782E630000F8B504463C
:101CC00000685649884203D97E2155A003F037F9B0
:101CD0002068624DC00364D56068AF1500280DD040
:101CE000B8420BD0C11FFF39FA3907D003210902CE
:101CF000884203D084214AA003F021F9E869002634
:101D0000C00008D4E969012000070143E961E969DD
:101D100001400126009152480168C9050FD40168AD
:101D200039430160FFF720FC074604E0FFF71CFC85
:101D3000C01B642824D84A480068C005F6D5286A24
:101D400003273F02384020D06168394081421CD0CF
:101D5000286A2A6AB843012109040A432A622A6AC6
:101D60008A432A622862C0070FD0FFF7FDFB00906C
:101D700008E0FFF7F9FB0099411A3A48814201D97E
:101D80000320F8BD286A8007F3D5286A6168B84344
:101D900008432862002E04D0E8690121090788431E
:101DA000E8612078C00712D0A068002809D0012877
:101DB00007D0022805D0032803D0CB2118A003F0B8
:101DC000BEF8286BA168800880000843286320784B
:101DD00080060ED5E068002805D0102803D0EF213A
:101DE0000FA003F0ACF8286B10218843E16808438A
:101DF0002863206880030ED52069002805D080283C
:101E000003D0FA2106A003F09AF8286B80218843BA
:101E10002169084328630020F8BD00002100030069
:101E20002E2E2F447269766572732F53544D3332C0
:101E3000463078785F48414C5F4472697665722F0E
:101E40005372632F73746D3332663078785F6861D4
:101E50006C5F7263635F65782E6300000010024060
:101E60000070004088130000F8B50E46050003D14D
:101E70006F4970A003F063F82868C10708D1810793
:101E800006D4400704D46A496AA0491C03F057F8F5
:101E9000002E06D0012E04D0B721890065A003F0E2
:101EA0004EF872480068C007C00FB0420AD26F48AF
:101EB000016849084900314301600068C007C00F4C
:101EC000B0426ED128786A4C80071DD5A8680028DA
:101ED00014D0802812D0902810D0A0280ED0B0287E
:101EE0000CD0C0280AD0D02808D0E02806D0F0288E
:101EF00004D04F494FA0193103F021F86068F02158
:101F00008843A968084360602878C0074ED0686895
:101F100000280DD001281ED002281FD0444945A01A
:101F2000203103F00CF86868012814D0022815D07D
:101F300020688007002849DA6068696880088000A6
:101F400008436060FFF710FB6968074601290ED05F
:101F5000022918D026E020688003EBE72068800182
:101F6000E8E7FFF701FBC11B4248814217D86068D0
:101F70000007800F0128F4D118E0FFF7F5FAC11B24
:101F80003C4881420BD860680007800F0228F4D1DA
:101F90000CE0FFF7E9FAC11B3648814202D9032061
:101FA000F8BD13E060680007800FF2D12F48016888
:101FB000C907C90FB1420BD901684908490031432B
:101FC00001600068C007C00FB04201D00120E7E700
:101FD000287840071CD50726E8683602002812D06A
:101FE0000121890288420ED00521090288420AD0C7
:101FF00003214902884206D0B04204D00C490DA00A
:10200000893102F09CFF6068E968B0430843606072
:1020100000F04CF86168184A0906090F515CC84085
:10202000164908600020FFF79BFD0020B8E700007C
:10203000DA0200002E2E2F447269766572732F53D8
:10204000544D3332463078785F48414C5F44726972
:102050007665722F5372632F73746D3332663078E6
:10206000785F68616C5F7263632E630000200240DA
:102070000010024088130000540101081C000020D9
:1020800001480068704700001C0000200448054912
:1020900000684968044A4905490F515CC8407047C7
:1020A0001C000020001002406401010830B514A398
:1020B0000FCB89B06C460FC415A30FCB0FC41849C2
:1020C0004A680C20144604401648042C03D0164BD2
:1020D000082C02D0184609B030BD9402240F6D467A
:1020E0002C5DC96A04AD0907090FD203695C920F20
:1020F000022A00D01846FDF7FBFF6043EBE7000023
:1021000002030405060708090A0B0C0D0E0F101038
:102110000102030405060708090A0B0C0D0E0F1037
:1021200000100240002D310100127A00FEB50400BB
:1021300004D1FF211331F1A002F001FF0127206833
:102140003F040426FB4D00280ED0C1070FD18107A4
:1021500068D401077ED441077DD4C0067CD4FF211A
:102160001431E6A002F0EBFE2078C00757D060687B
:10217000002808D0012806D0052804D0FF211A31F4
:10218000DEA002F0DCFE68680007800F012818D08E
:1021900068680007800F022804D16868C003800FB8
:1021A00002280ED06068012812D0002801D005282E
:1021B00018D02868B843286028680121890488431A
:1021C00008E0286880032AD56068002871D026E0DE
:1021D0002868384328606068002813D0FFF7C4F9E6
:1021E00000900BE028680121890408432860EFE78C
:1021F000FFF7BAF90099401A64287DD8286880034F
:10220000F6D50CE0FFF7B0F9009005E0FFF7ACF968
:102210000099401A6428F0D828688003F6D4207802
:10222000800757D5E068002806D0012804D0FF2198
:102230004E31B2A002F083FE20691F2804D9FF218D
:102240004F31AEA002F07BFE68680007800F18D007
:10225000686802E041E075E0E6E00007800F0228D0
:1022600004D16868C003800F01280AD0E068002804
:1022700028681FD0012108432860FFF775F90090F6
:102280000CE0286880070CD5E068012811D108E02F
:10229000FFF76AF90099401A0228AED8286880072B
:1022A000F6D52868F82188432169C90008432860C9
:1022B00010E084E1400840002860FFF755F90090E5
:1022C00005E0FFF751F90099401A022895D82868CF
:1022D0008007F6D42078000731D5E06900281DD0AA
:1022E000012807D0FF218F3184A002F028FEE06989
:1022F000002813D0686A00E0CAE10121084368623F
:10230000FFF732F9009005E0FFF72EF90099401A27
:102310000228C2D8686A8007F6D510E0686A4008CB
:1023200040006862FFF720F9009005E0FFF71CF914
:102330000099401A0228B0D8686A8007F6D420783D
:1023400040076ED500200190A068002808D0012821
:1023500006D0052804D0FF21BB3168A002F0EFFDB4
:10236000E869C00009D4E969012000070143E96177
:10237000E96901400120009101906F480168C90599
:1023800011D40168821511430160FFF7EDF8009048
:1023900005E0FFF7E9F80099401A642896D86648E6
:1023A0000068C005F5D5A06801280AD0002801D032
:1023B000052811D0286A400840002862286AB043E6
:1023C00002E0286A012108432862A068002812D090
:1023D000FFF7CAF800900AE0286A30432862F0E765
:1023E000FFF7C2F80099411A5448814291D8286AEF
:1023F0008007F5D50DE0FFF7B7F8009006E0FFF78E
:10240000B3F80099411A4D48814294D8286A800750
:10241000F5D40198002804D0E96901200007814320
:10242000E9612078C00648D56069002808D00128F5
:1024300006D0401D04D00121490230A002F07FFDEA
:10244000A0691F2803D93E492CA002F078FD6069DD
:1024500001280CD0401D686B24D030436863686B42
:10246000400840006863FFF77FF8064622E0686B8B
:1024700030436863686B012108436863FFF774F8B1
:10248000064604E0FFF770F8801B022886D8686BC8
:102490008007F7D5686BF8218843A169C900084314
:1024A00068630AE0B0436863F4E7FFF75DF8801BF8
:1024B00002289BD8686B8007F7D4206A00287DD05B
:1024C000012809D0022807D09D2189000BA002F025
:1024D00036FD206A002871D068680007800F022846
:1024E0006DD00126206A360602282BD02868B0431A
:1024F0002860FFF739F80446CCE000002E2E2F4468
:102500007269766572732F53544D33324630787842
:102510005F48414C5F4472697665722F5372632F36
:1025200073746D3332663078785F68616C5F7263A4
:10253000632E63000010024000700040881300000A
:10254000010200000121606AC903884205D0B84237
:1025500003D05449544802F0F2FCA06A00283ED04F
:102560000121890488423AD04900884237D00321AA
:102570008904884233D00121090588422FD00521E2
:10258000890488422BD00321C904884227D007211F
:102590008904884223D00121490588421FD009219E
:1025A000890488421BD00521C904884217D00B2119
:1025B0008904884213D00321090501E06DE06EE033
:1025C00088420CD00D218904884208D00721C90413
:1025D000884204D033493448491C02F0B0FCE06A18
:1025E000002822D0012820D002281ED003281CD089
:1025F00004281AD0052818D0062816D0072814D089
:10260000082812D0092810D00A280ED00B280CD088
:102610000C280AD00D2808D00E2806D00F2804D088
:1026200020492148891C02F08AFC2868B0432860B0
:10263000FEF79AFF074604E0FEF796FFC01B02284C
:1026400026D828688001F7D4E86AE16A0009000109
:102650000843E862616AA06A084369687B22D20382
:10266000914308436860286830432860FEF77CFF88
:10267000044604E0FEF778FF001B022808D828680B
:102680008001F7D509E0FEF76FFF001B022801D992
:102690000320FEBD28688001F5D40020FEBD012086
:1026A000FEBD00007D020000FC24000870B504257A
:1026B000084C042809D0002804D0FF21363106A098
:1026C00002F03DFC2069A84301E020692843206115
:1026D00070BD000000E000E02E2E2F447269766588
:1026E00072732F53544D3332463078785F48414CE3
:1026F0005F4472697665722F5372632F73746D3302
:1027000032663078785F68616C5F636F7274657889
:102710002E630000094910B5401E884201D90120EE
:1027200010BD074C60610321081F00F0A5FF0020C9
:10273000A06107202061002010BD0000FFFFFF0006
:1027400000E000E07047704770B5040048D02D49A4
:102750002068884218D02C49884215D02B498842DD
:1027600012D02B4988420FD02A4988420CD02A49DE
:10277000884209D02949884206D02949884203D095
:10278000D42128A002F0DBFBA06800280BD0102881
:1027900009D0202807D0402805D0602803D0D521B3
:1027A00020A002F0CCFB206900280AD0C11FF93913
:1027B00007D0C11FFF39FA3903D0D62119A002F082
:1027C000BEFBA069002805D0802803D0D72115A022
:1027D00002F0B5FB25462035687F002802D006E0D0
:1027E000012070BD00202877204600F037F8022035
:1027F0006877211D206801F021FC01206877002006
:1028000070BD0000002C014000040040001000409A
:1028100000140040002000400040014000440140FE
:10282000004801402E2E2F447269766572732F5333
:10283000544D3332463078785F48414C5F4472697A
:102840007665722F5372632F73746D3332663078EE
:10285000785F68616C5F74696D2E630008B500680D
:10286000094988420FD10948C26981150A43C261EA
:10287000C06900220840009001211320FFF7F2F9FF
:102880001320FFF7C1F908BD0020004000100240EE
:1028900010B5044601681448814219D0134881429A
:1028A00016D01348814213D01248814210D01248EA
:1028B00081420DD0114881420AD01148814207D08F
:1028C0001048814204D0FF215F310FA002F037FB96
:1028D0002168CA6801200243CA6021680A6802436D
:1028E0000A60002010BD0000002C014000040040E0
:1028F0000010004000140040002000400040014053
:1029000000440140004801402E2E2F447269766534
:1029100072732F53544D3332463078785F48414CB0
:102920005F4472697665722F5372632F73746D33CF
:1029300032663078785F68616C5F74696D2E630011
:1029400010B5044601681848814219D017488142E1
:1029500016D01748814213D01648814210D016482D
:1029600081420DD0154881420AD01548814207D0D6
:102970001448814204D0FF21733113A002F0DFFA22
:102980002068C16849084900C1602068016A1C4A82
:10299000114207D1016A9210114203D1016849081E
:1029A00049000160002010BD002C014000040040DF
:1029B0000010004000140040002000400040014092
:1029C00000440140004801402E2E2F447269766574
:1029D00072732F53544D3332463078785F48414CF0
:1029E0005F4472697665722F5372632F73746D330F
:1029F00032663078785F68616C5F74696D2E630051
:102A000011110000704770B5044600680169002587
:102A1000C9438907002915DBC168C943890711D457
:102A2000E91E016101202077206880698007204627
:102A300002D0FFF7E7FF04E000F096F8204600F030
:102A400094F8257720680169C943490717D4C168FC
:102A5000C943490713D40421C943016102202077E7
:102A6000206880698005800F204602D0FFF7CAFFEA
:102A700004E000F079F8204600F077F82577206828
:102A80000169C943090716D4C168C943090712D4AB
:102A90000821C9430161042020772068C0698007AC
:102AA000204602D0FFF7AEFF04E000F05DF82046BC
:102AB00000F05BF8257720680169C943C90617D47F
:102AC000C168C943C90613D41021C9430161082054
:102AD00020772068C0698005800F204602D0FFF76C
:102AE00091FF04E000F040F8204600F03EF8257722
:102AF00020680169C943C90708D1C168C943C9072A
:102B000004D1891E0161204600F030F82068016977
:102B1000C943090609D4C168C943090605D48021FF
:102B2000C94301612046FFF70DFE20680169C943D2
:102B3000490609D4C168C943490605D44021C9439F
:102B40000161204600F013F820680169C943890635
:102B500009D4C168C943890605D42021C94301614C
:102B60002046FFF7F0FD70BD704770477047704713
:102B700070B504002BD01749206888420DD0164943
:102B800088420AD01549884207D01549884204D0A6
:102B90001121490113A002F0D2F92421204660300E
:102BA00006464172206801684908490001602068B2
:102BB000002505602068456020688560204600F09B
:102BC000A9F8E5667572B5723572002070BD0120F6
:102BD00070BD000000380140004400400048004043
:102BE000004C00402E2E2F447269766572732F536D
:102BF000544D3332463078785F48414C5F447269B7
:102C00007665722F5372632F73746D33326630782A
:102C1000785F68616C5F756172742E6300000000FC
:102C200070B5040012D0A06927490028274A284B14
:102C3000284D20680CD0884217D0904215D0984279
:102C400013D0A84211D0FF212F310BE0012070BD1D
:102C500088420AD0904208D0984206D0A84204D0B8
:102C6000FF2134311CA002F06AF925466035687AEC
:102C7000002803D12872204600F066F824206872EC
:102C800020680168490849000160204601F022FBE4
:102C90000128DCD0606A002802D0204601F012FA38
:102CA000206841680122D202914341602068816816
:102CB000082291438160206801680122114301606C
:102CC000204601F0FDFA70BD00380140004400408C
:102CD00000480040004C00402E2E2F44726976655B
:102CE00072732F53544D3332463078785F48414CDD
:102CF0005F4472697665722F5372632F73746D33FC
:102D000032663078785F68616C5F756172742E63CB
:102D10000000000010B50068094988420ED109483A
:102D200081690122920391438161032109204902B3
:102D3000C006FEF7EBF91B20FEF738FF10BD0000C0
:102D4000003801400010024010B586B0044614213E
:102D50006846FDF70DFA17492068884227D11648C2
:102D60008269012189030A43826182690A400592CE
:102D70004269C9000A434261406908400590032046
:102D80004002009002200190002002900320039056
:102D90000120049009206946C006FEF765FA00226A
:102DA00011461B20FEF75EFF1B20FEF72DFF06B02D
:102DB00010BD00000038014000100240FFB507467A
:102DC00004466037B87A83B00E46202871D1002EB1
:102DD0000CD00598002809D00120A1680003814289
:102DE00007D12069002804D1F00702D0012007B0E4
:102DF000F0BD387A01285CD0012038720020E066EE
:102E00002220B872FEF7B0FB0290254640350598A7
:102E10002883059868830122A0681203FF2190424D
:102E200004D12069002815D123480AE07F22002818
:102E30000BD001210907884204D12069002807D05E
:102E40003F20A883A88B019023E02069002801D0AF
:102E5000AA83F7E7A983F5E7688B401E6883069885
:102E60000090002220212046029B01F065FB0028F3
:102E700001D00320BBE70120A1680003814202D1F9
:102E8000206900280DD02068818C019801403170A4
:102E9000761C688B0028DFD12020B87200203872A1
:102EA000A5E72068808C019908403080B61CF0E7C7
:102EB000FFE702209BE70000FF010000FFB5064688
:102EC00004466036707A83B00D46202858D1002D14
:102ED0000CD00598002809D00120A1680003814288
:102EE00007D12069002804D1E80702D0012007B0EB
:102EF000F0BD307A012843D0012030720020E06616
:102F000021207072FEF730FB01902746403705986C
:102F100038820598788218E0788A401E7882069870
:102F20000090002280212046019B01F005FB002833
:102F300018D10120A1680003814202D12069002834
:102F400012D02168287808856D1C788A0028E3D182
:102F500006980090002240212046019B01F0ECFAE7
:102F6000002808D00320C2E728882168C005C00DCA
:102F70000885AD1CE9E72020707200203072B6E7AA
:102F80000220B4E7FEE701688A69D243920701D4C0
:102F900000228A6200688169C943C90703D0816938
:102FA0000122114381617047F7B5044600680E465F
:102FB0008069C043C0062CD42027254640352068B0
:102FC0008069C04380060FD5701CF8D0002E05D054
:102FD000FEF7CAFA0299401AB042F0D96F70002089
:102FE000A87028700320FEBD21681020C8612068E9
:102FF000C7612046FFF7C7FF20684168064A1140B5
:103000004160042060646F700020A8702870012067
:10301000FEBD0020FEBD000000E800FEFFB50F462B
:10302000064681B000681E490A9C1D46884206D0AB
:103030001C49884203D01C491CA001F080FF0120DC
:103040000006854209D04000854206D0002D04D0FC
:10305000154916A0491C01F072FF0120800384422B
:103060000ED00920800284420AD00120400384420D
:1030700006D0002C04D00C490CA0891C01F05FFF85
:10308000326851681748039B0140B805800D1B0446
:103090001843284320430843506005B0F0BD0000AA
:1030A0000054004000580040591200002E2E2F44BA
:1030B0007269766572732F53544D33324630787887
:1030C0005F48414C5F4472697665722F5372632F7B
:1030D00073746D3332663078785F68616C5F693223
:1030E000632E6300009800FCF8B51C4617460E4698
:1030F000054611E0601C0FD0002C05D0FEF734FA15
:103100000699401AA04207D9202040356870002057
:10311000A87028700320F8BD28688169304688436C
:1031200004D00020B842E5D00020F8BD0120F9E726
:10313000F7B5002720260546044640352AE02046FC
:10314000029A0199FFF730FF002801D00120FEBD4F
:1031500020688069C04380060BD42068C66120685F
:103160004168104A1140416067646E70AF702F7003
:10317000ECE70198002806D0FEF7F6F90299411A0B
:103180000198814206D9606C304360646E702F7084
:103190000320FEBD20688069C0434007CFD40020D3
:1031A000FEBD000000E800FE70B516460D46044660
:1031B0001AE0324629462046FFF7F6FE002801D0E5
:1031C000012070BD002D04D0FEF7CEF9801BA8426F
:1031D0000AD9616C20200143616440346070002092
:1031E000A0702070032070BD20688069C0438006F5
:1031F000DFD4002070BD70B516460D4604461CE0B5
:10320000324629462046FFF7CFFE002801D0012094
:1032100070BD681C11D0002D04D0FEF7A5F9801BED
:10322000A8420AD9616C2020014361644034607077
:103230000020A0702070032070BD20688069C0430A
:103240008007DDD4002070BD11B583B0FF240123B9
:1032500003AADE2107480094FEF7ACFB012301AA74
:10326000DF2104480094FEF719FB6846007904B09A
:1032700010BD00006C0000201CB56A461071517131
:10328000FF200090022301AADE210348FEF792FBF3
:10329000002800D001201CBD6C000020F8B50546B8
:1032A00001200E4617461C46202D01DA002D00D1C4
:1032B00005460D2E01DA002E00D106462B48874226
:1032C00003DD2A4951318F4200DB07460020072CDD
:1032D00000DB044626490A693C2A00DB06904A695D
:1032E0003C2A00DB07908969182900DB089001203F
:1032F00000F014FC0898C0B2FDF780FB01460020E6
:10330000FFF7BAFF0798C0B2FDF778FB014601202E
:10331000FFF7B2FF0698C0B2FDF770FB80210143B2
:103320000220FFF7A9FFE8B2FDF768FB0146032082
:10333000FFF7A2FFF0B2FDF761FB01460420FFF7A3
:103340009BFF7D200001381AC0B2FDF757FB0146F4
:103350000520FFF791FFE0B2FDF750FB0146062084
:10336000FFF78AFF002000F0D9FBF8BDE30700005B
:10337000840C002070B51D4C0025A574E57400F088
:103380009DF91B4EA57235701A48E0800020362347
:10339000024600215A4392195318491C9D7136293F
:1033A000FADB401C2028F2DB75700220F0702581CA
:1033B000A573FF20607365740F4C01210022C902C0
:1033C0002046FEF79BF80121002289022046FEF7E5
:1033D00095F8012211032046FEF790F800F072FBE9
:1033E00000F05AFDFDF7E0FA70BD0000280C002047
:1033F00068050020881300000004004800210648EA
:10340000064B01700122084652021954401C90429A
:10341000FBDB034881807047080000206801002022
:10342000680500200EB50021234800910191214A32
:1034300002910260520542608160012204230C3037
:103440000EC0016041608160FF23C160C2334161F1
:103450000361C26181611838FDF738FC002800D093
:10346000FEE70721012000030091029101906946C7
:103470001148FDF7EDFA002800D0FEE70820009083
:1034800069460D48FDF7E4FA002800D0FEE7092060
:10349000009069460848FDF7DBFA002800D0FEE7F7
:1034A0001020009069460448FDF7D2FA002800D0A9
:1034B000FEE70EBD0024014020000020F0B587B0DB
:1034C00014216846FCF754FE294842690121490449
:1034D0000A43426142690A400592426949000A432F
:1034E0004261406900220840059009202149C00638
:1034F000FEF704F8002220492048FDF7FFFF0F21C6
:10350000012209031D48FDF7F9FF012216020920D7
:103510003146C006FDF7F2FF1948012400250327B4
:103520006A46B1C209206946C006FDF79DFE1548EE
:103530006A46B1C269461148FDF796FE69460F48D2
:10354000009601950294FDF78FFE01220920D10318
:10355000C006FDF7D3FF012204210848FDF7CEFF86
:10356000092001223146C006FDF7C8FF07B0F0BDB3
:10357000001002407F800000040C0000000400489E
:103580007F81000004FC000010B512481049016062
:103590001149416000218160016141618161012225
:1035A000C161C2600162FEF79DF8002800D0FEE70D
:1035B00000210848FDF7DEFF002800D0FEE70021CB
:1035C0000448FEF735F8002800D0FEE710BD0000E3
:1035D000005400406C0000201A220F0010B51D4955
:1035E000030001F034F80E34080A17191C1E2022BB
:1035F00025282B2E3134184800E01848C860184898
:1036000008602F2048600020886008611148FFF79B
:103610009BF810BD1348F1E77D204001EEE712480A
:10362000ECE71248EAE71248E8E77D200001E5E709
:103630004B200001E2E719204001DFE7FF20F530D1
:10364000DCE7FF20C330D9E7FF209130D6E77D20AB
:10365000C000D3E7B8000020581B0000701700001E
:103660000020004088130000AC0D0000B80B0000E3
:10367000C4090000704700008307FF22DB0E9A4058
:103680008907090E994000280BDA0007000F083857
:10369000830808489B001818C36993430B43C36110
:1036A0007047830804489B001B1818689043084320
:1036B0001860704700ED00E000E400E010B5084C31
:1036C000012251032046FDF719FF012291032046F4
:1036D000FDF714FF0122D1032046FDF70FFF10BDB7
:1036E0000004004810B5094C01210022490320467E
:1036F000FDF704FF012291032046FDF7FFFE0122A2
:10370000D1032046FDF7FAFE10BD0000000400487A
:1037100010B5094C012251032046FDF7EFFE0121AF
:10372000002289032046FDF7E9FE0122D10320464D
:10373000FDF7E4FE10BD00000004004810B5084C81
:10374000012251032046FDF7D9FE012291032046B4
:10375000FDF7D4FE002261012046FDF7CFFE10BD2B
:103760000004004870470000F3B506463A480024BC
:10377000006E81B040002546000E5FD00298FDF734
:1037800045F91B223549002092018F188A7807E0FD
:10379000334B1B5C002B01D104466420401CC0B29B
:1037A0008242F5D853E0002C01D10A2804D02D48DC
:1037B0000078012826D031E02A4C2078002818D142
:1037C000787B092815D8012020702748FFF7B8F822
:1037D000254DE868FCF7F6FE0022D243FCF7C8FE50
:1037E000FCF718FFE8602846FEF7AEFF2846FFF713
:1037F0004FF8FDF7F7F81DA11948FCF7C4FCC820E5
:10380000606015E01848FFF79BF8787BFFF7E6FE4D
:103810001548FFF73DF8134800210170715D0A2932
:1038200006D00E488078401EA04208D10C480155B1
:103830000B48029900F01CF8FDF7D4F8FEBDA04239
:1038400001DD074801556D1C641CEDB2E4B2705DEA
:103850000028A8D1FEBD0000E80B0020680500206C
:103860006803002010000020B80000202020200065
:10387000F3B507466C4881B0006E4000000E6ED074
:1038800000216A4C0D46084636230022584303198E
:103890009E18521CB571362AFADB491C2029F2DB2E
:1038A0000298FDF7B3F8604D00214035A4E00020F8
:1038B0009DE07A5C002A07D0029E330000F0C7FE2C
:1038C0000607112338507094A17818468EE0584BA3
:1038D0001201D218362343431B19125C5B189A71EC
:1038E00084E05301534A4E009B18420096469A18B2
:1038F000362343431B199B1952789C469A717B5C73
:103900005E014C4B25E030235A434B4B4E00D318FD
:10391000420096469A18362343431B199B19527846
:103920009C469A717B5C30267343434E9B1911E091
:103930009301424A4E009B18420096469A1836233D
:1039400043431B199B1952789C469A717B5C9E01DC
:103950003A4BF31872469A5C6346DA7146E05EE0D1
:1039600048235A43364B4E00D318420082189646DD
:103970009A18362343431B198E199B1992789C463B
:103980009A717B5C482673432D4E72469B19734493
:103990005E786346DE717B5C48267343284E1EE0EA
:1039A00060235A43274B4E00D31842008218964694
:1039B0009A18362343431B198E199B1992789C46FB
:1039C0009A717B5C602673431E4E72469B1973444A
:1039D0005E786346DE717B5C60267343194E9B19EB
:1039E0009A5C63461A7201E0174A2A81401C2B89AF
:1039F000834200DD5DE7491CA078884200DD56E780
:103A00000120A872FDF7B0FD0AE0FDF7ADFD044608
:103A1000FDF7AAFDA04203D1A87A0028F8D1FEBD87
:103A2000A87A0028F1D1FEBDE80B0020680500202F
:103A30005C540008CC5C0008AC6D0008FC860008F3
:103A4000BCA80008B4CE0008B80B0000F0B585B0E3
:103A500000F022FA0720FFF7F7FBC0072BD0072062
:103A6000FFF7F2FBBF2101400720FFF705FC1448D8
:103A700003271C26476708258666104CC566322238
:103A80000467C2670A21816780300160411B1422EC
:103A90006846FCF754FB3B46224629463046FFF772
:103AA000FDFB0720FFF7D0FBFD21084080210143EB
:103AB0000720FFF7E1FB05B0F0BD0000E3070000C1
:103AC000E80B002010B501F03BFA10BD10B502461E
:103AD000012109030148FDF711FD10BD0004004854
:103AE00010B50246012149030148FDF707FD10BD4D
:103AF0000004004810B50246012189030148FDF782
:103B0000FDFC10BD0004004810B502460121C903A8
:103B10000148FDF7F3FC10BD0004004810B5044651
:103B20000720FFF791FB0146002C04D0012C04D1A3
:103B30001020014301E0EF2001400720FFF79CFB2C
:103B400010BD704770B50C46054601F06BFC214670
:103B50002846FFF709FE00F09FF970BD70B58EB0E2
:103B600001F0EEF97C4D7B4C2C6000217BA0FFF72F
:103B7000E9FF00217FA0FFF7E5FF834800214068AF
:103B8000FFF7E0FF002181A0FFF7DCFF844E706D9E
:103B9000FCF75EFD02460B4682A1684600F02CFD54
:103BA00000216846FFF7CEFF002182A0FFF7CAFF81
:103BB000F06DFCF74DFD02460B4684A1684600F00F
:103BC0001BFD00216846FFF7BDFF002182A0FFF723
:103BD000B9FFB06DFCF73CFD02460B467BA1684681
:103BE00000F00AFD00216846FFF7ACFF00217FA02E
:103BF000FFF7A8FF306EFCF7F3FC02467DA1684694
:103C000000F0FAFC00216846FFF79CFF00217BA032
:103C1000FFF798FF30464030427B7CA1684600F0B9
:103C2000EBFC00216846FFF78DFF00217AA0FFF72B
:103C300089FF7F486FA14268684600F0DDFC0021E3
:103C40006846FFF77FFF20216846417000218170A0
:103C500078A0FFF777FF2026684606700021FFF75F
:103C600071FF2C60761C872EF6DB002175A0FFF714
:103C700069FF002174A0FFF765FF202668460670E3
:103C80000121FFF75FFF2C60761C872EF6DB0121F8
:103C90006CA0FFF757FF02216FA0FFF753FF20260C
:103CA000684606700221FFF74DFF2C60761C872EB8
:103CB000F6DB022163A0FFF745FF03216AA0FFF7AF
:103CC00041FF2026684606700321FFF73BFF2C606A
:103CD000761C872EF6DB03215AA0FFF733FF042161
:103CE00065A0FFF72FFF2026684606700421FFF726
:103CF00029FF2C60761C872EF6DB042151A0FFF7EC
:103D000021FF052160A0FFF71DFF202668460670F1
:103D10000521FFF717FF2C60761C872EF6DB0421A8
:103D200048A0FFF70FFF042146A0FFF70BFF042177
:103D300044A0FFF707FF042142A0FFF703FF04217F
:103D400040A0FFF7FFFE04213EA0FFF7FBFE0EB0F0
:103D500070BD0000AAAA0000003000400D0A0A54FD
:103D60004F52524559205052494E5445522E0A0D39
:103D70000A0000004649524D5741524520564552CF
:103D800053494F4E3A20000000000020496E7075E4
:103D90007420506F776572205375706C793A2000EB
:103DA000E80B00202025322E3366205664630D0A6E
:103DB000000000005072696E7465722054656D7069
:103DC000657261747572653A200000002025322EFC
:103DD000326620B0430D0A004350552054656D7083
:103DE000657261747572653A2000000050617065FB
:103DF000723A20002025640D0A0000004D6F746F98
:103E0000722053706565643A20000000202564200C
:103E10006D6D2F730D0A0000436F6D6D756E6963D4
:103E20006174696F6E2053706565643A200000000C
:103E3000F80000200A2020464F4E54387831360DC5
:103E40000A000000200D0A000A2020464F4E54317F
:103E5000367831360D0A00000A2020464F4E543184
:103E6000367832340D0A00000A2020464F4E543175
:103E7000367833320D0A00000A2020464F4E543265
:103E8000347832340D0A00000A2020464F4E543256
:103E9000347833320D0A000070B51C4C0025607B6D
:103EA000C01E0B2802D3082060730125FFF70AFE0D
:103EB000164817494038406D884205DB627BE17A3D
:103EC0008A4201D0617301251249884208DA637B76
:103ED000227B934204D0E37C092B01D0627301253D
:103EE000884208DAE07C092805D1607B072802D0E7
:103EF0000720607301E0002D06D00A206073FFF7F1
:103F00006DFB0548FEF7C4FC70BD0000280C0020C6
:103F1000CDCCDC400000F040B800002010B5FDF72B
:103F200007FE10BD30B595B030216846FCF720F98A
:103F300000240C940D940E94142110A80F94FCF7F7
:103F400017F90A2000900120039010210790049196
:103F5000C0030990400102250A9008950B94684619
:103F6000FEF7E4F8002800D0FEE707200C900E943E
:103F700001210D950F940CA8FDF776FF002800D0C5
:103F8000FEE70F481090802014901294139410A80C
:103F9000FDF794FE002800D0FEE7FEF771F87D21C2
:103FA000C900FCF7A5F8FEF7B5FB0420FEF77EFB81
:103FB00000221146501EFDF755FE15B030BD000021
:103FC0002100020015480168012211430160416887
:103FD000134A114041600168124A114001600168B2
:103FE000012292049143016041683F2212049143EF
:103FF0004160C16A09090901C162016BFF22943263
:1040000091430163016B802211430163416B4908B5
:1040100049004163002181607047000000100240A8
:104020000CB8FF08FFFFF6FE10B50348FEF7EBFCE7
:1040300001F02CF910BD0000B8000020F0B50268B6
:104040001A4B1B4C984201D0A04203D17025AA43C1
:104050004D682A43174D184E184F98420AD0A04277
:1040600008D0174CA04205D0A84203D0B04201D0DE
:10407000B84205D11446032212029443CA6822436F
:104080008024A2434C69224302608A68C2620A68A3
:104090008262984205D0A84203D0B04201D0B84213
:1040A00001D10969016301214161F0BD002C01408A
:1040B000000400400040014000440140004801402D
:1040C0000020004070B50446406AFF2803D96A49C1
:1040D0006AA000F034FFA08CC00711D00125A06AAF
:1040E0006D04002806D0A84204D0634963A0491D8E
:1040F00000F025FF20684168A26AA943114341608E
:10410000A08C800711D50125E06A2D04002806D077
:10411000A84204D0584959A00C3100F010FF216882
:104120004868E26AA84310434860A08C400711D554
:104130000125206BAD04002806D0A84204D04E49CA
:104140004EA0133100F0FBFE20684168226BA943AA
:1041500011434160A08C000711D50125606BED0370
:10416000002806D0A84204D0434944A01A3100F0E8
:10417000E6FE21684868626BA84310434860A08C43
:10418000C00611D50125A06B2D03002806D0A8423A
:1041900004D0394939A0213100F0D1FE2168886866
:1041A000A26BA84310438860A08C800611D501251E
:1041B000E06B6D03002806D0A84204D02E492FA042
:1041C000283100F0BCFE21688868E26BA8431043E8
:1041D0008860A08C400639D537492068884207D0CE
:1041E0003649884204D0244924A02F3100F0A7FE8C
:1041F0000125206C2D05002806D0A84204D01E49B8
:104200001EA0303100F09BFE21684868226CA84354
:1042100010434860206CA84218D10325606C6D05DE
:1042200000280DD001214905884209D04900884263
:1042300006D0A84204D0104910A0353100F07FFE0E
:1042400021684868626CA84310434860A08C00064F
:1042500011D50125A06CED04002806D0A84204D099
:10426000054906A03D3100F06AFE20684168A26C55
:10427000A9431143416070BDA90800002E2E2F44B0
:104280007269766572732F53544D333246307878A5
:104290005F48414C5F4472697665722F5372632F99
:1042A00073746D3332663078785F68616C5F756106
:1042B00072742E630000000000380140004400408A
:1042C0000021C1662022603042728272017208466B
:1042D00070470000F8B500260446009640687D4906
:1042E0001025884203D37C497CA000F028FE0121E0
:1042F000A0680907884209D0002807D0091488421D
:1043000004D0754975A0491C00F019FEE06800282A
:1043100008D001214903884204D06F496FA0891C4D
:1043200000F00DFE206900280CD00121890288428E
:1043300008D003214902884204D0674967A0C91CFC
:1043400000F0FDFD60690C220146914301D1002877
:1043500004D1614961A0091D00F0F1FDA0690028A8
:104360000FD0C11FF9390CD0C11FFF39FA3908D05D
:1043700003210902884204D0574958A0491D00F082
:10438000DEFD206A002808D00121C902884204D03D
:10439000514952A0891D00F0D2FDE069002808D0E3
:1043A0000121C903884204D04B494CA0C91D00F02B
:1043B000C6FD2169A068E26908436169114322686A
:1043C00008431168544B194001431160206841684B
:1043D000032212039143E26811434160216AA069FC
:1043E0002268084391680B231B02994301439160A3
:1043F0004A482768874210D14948006B8007800FE0
:1044000014D0012805D0022805D003280FD1022599
:104410000DE004250BE0082509E04248874205D05D
:104420004148874202D04148874200D100250120FF
:10443000E169C003814225D1002D0DD0022D0ED09F
:10444000042D14D0082D18D0012000903109090145
:104450003007400F084331E0FDF718FE09E06168BE
:10446000334A48088018FBF743FE86B2EEE7FDF7B3
:104470001DFE616840004A08F4E7616801224808AF
:104480001204EFE7002D09D0022D0AD0042D0DD023
:10449000082D16D0012000900098F8BDFDF7F6FD1C
:1044A00006E06168234A480880180DE0FDF7FEFD2C
:1044B00061684A088018FBF71BFE80B22168C8605B
:1044C000EAE761684A081018FBF712FE80B2F8604C
:1044D000E2E70000818D5B00460800002E2E2F448D
:1044E0007269766572732F53544D33324630787843
:1044F0005F48414C5F4472697665722F5372632F37
:1045000073746D3332663078785F68616C5F7561A3
:1045100072742E6300000000F369FFEF0038014061
:10452000001002400044004000480040004C0040A1
:104530000024F40000127A00FFB581B017460E4641
:1045400004460A9D1DE0681C1BD0002D05D0FDF718
:104550000BF80499401AA84213D920680168FF2279
:10456000A132914301602068816849084900816057
:10457000202060346072A07200202072032005B0F9
:10458000F0BD2068C1693046884304D00020B8429D
:10459000D9D00020F3E70120F9E7000038B5002466
:1045A0006846047011480068C16989061AD5006818
:1045B000800617D5FF23012269460C48FEF7FEFB53
:1045C0000B4A0C481178002900D1446069460B78E9
:1045D0004168002B535406D0CA1FFF3AF93A02D063
:1045E000491C416038BD0121017038BDF800002030
:1045F00068010020080000200FB410B504A9074B83
:1046000002AA039800F0FAF8044602A9002000F07C
:1046100091FC204610BC08BC04B01847354F000878
:104620002021020C01D010211046020A01D01046B0
:104630000839020901D01046091F820801D010462E
:10464000891E420801D0881E7047081A704730B48E
:104650007446641E2578641CAB4200D21D46635D1F
:104660005B00E31830BC184702E008C8121F08C1FD
:10467000002AFAD170477047002001E001C1121FE3
:10468000002AFBD170470000F0B51FB486B009982E
:10469000089A030D0021024314D05148514A1818BA
:1046A000504305141198012810981AD0281A401C5C
:1046B00000264D4F4D49009601910490002812DAD2
:1046C000444211E01198012449A3012801D1109816
:1046D000C1430698119A84600360C26041600BB0C8
:1046E000F0BD4042E4E70446210500203F4A001C9B
:1046F00051410391029012E0E00707D032463B4659
:1047000001990098FBF754FE0191009032463B4618
:1047100010461946FBF74CFE06460F466410002C67
:10472000EAD10498039B0028029A0999089806DAAE
:10473000FBF73EFE019B009AFBF73AFE05E0FBF714
:104740009FFE019B009AFBF79BFE04460E4600224B
:10475000284BFCF7C1F803D80020C043014607E00E
:104760000022254B20463146FBF770FDFCF794F8FC
:10477000102409E0002C0ADB0A220023FBF798FF33
:10478000079B30321A55641E02460A43F2D11122A9
:10479000641C079B121B1C19119B012B03D00123C6
:1047A00008430ED10AE0084304D0112010900020E5
:1047B000119077E71098151A6D1E0BE01098824241
:1047C00002DD00236D1C03E0824201DA00236D1E2E
:1047D000002BEED0069811998260C16030C07EE750
:1047E00001FCFFFF104D0000000014400000F03FEE
:1047F000300000000000F0430000E03FFFB597B03C
:104800000646002518E2252877D100242746FD49D1
:10481000049400E00443761C32780120203A904052
:104820000842F7D130782A280ED00222307801468B
:104830003039092916D804990A23594330394018C8
:104840001443761C0490F1E7189802C8049118905C
:10485000002904DA01204003044348420490022066
:104860000443761C30782E2814D104200443707839
:10487000761C2A2809D11898761C80C8189009E05F
:104880000A214F43303FC719761C30780146303932
:104890000929F5D930786C2810D006DC4C281AD0BC
:1048A00068280ED06A2817D104E0742813D07A281B
:1048B00012D110E00120400504430CE0012109055C
:1048C00001E0032109050C437178814203D10120E5
:1048D00000052418761C761C3078119066280BD0C1
:1048E00013DC58287DD009DC00287BD04528F6D081
:1048F0004628F4D047281AD1A5E118E0632835D01E
:10490000642870D0652812D19DE170286CD008DC35
:104910006728F1D069287BD06E280DD06F2806D18A
:10492000BAE073282ED0752871D0782859D01A9AF9
:10493000199990476D1C7EE16002400F022809D052
:1049400003280DD00428189801680DD00D60001DB3
:10495000189070E11898EA1701680D604A60F6E750
:10496000189801680D80F2E70D70F0E718986A4614
:1049700001781172001D18900020507202A800905A
:10498000012005E0189802C8189000200091C0434B
:1049900061070DD5002101E00199491C0191B9423F
:1049A00012DA8142F8DB009A515C0029F4D10BE065
:1049B000002101E00199491C01918142FADB019A31
:1049C0000099895C0029F5D1019904981A9B471A2E
:1049D00021463846199A00F097FA0199401945186E
:1049E0000BE04FE02CE113E04EE0009800990078D6
:1049F000491C00911A9A199990470198401E0190FC
:104A0000401CF2D1214638461A9B199A10E137E032
:104A10000A200021009001916002410F022907D075
:104A2000189A01CA1892C2179446032908D00AE0BE
:104A30001898C01DC108C90005C91891944607E01F
:104A400000B2C2179446042902D140B2C1178C4665
:104A500000226146944506DA0A460021404291410F
:104A60008C462D2102E0210504D52B216A461173C5
:104A7000012103E0E10701D02021F7E7029155E091
:104A80000A200AE0102008E01020009000210420F5
:104A900004430191082703E00820002101910090C0
:104AA0006002410F022907D0189A01CA1892002209
:104AB0009446032908D008E01898C01DC108C90011
:104AC00005C91891944603E080B2042900D1C0B210
:104AD00000210291210729D51199702906D0009A49
:104AE0001021019B4A401A4305D00EE040216A463E
:104AF0001173012108E06146014306D030216A4666
:104B000011731199517302210291009A0821019B9E
:104B10004A401A430AD16146014301D1610705D5D4
:104B200030216A46117301217F1E02911199582983
:104B300004D035A10E910DA90D910DE037A1F9E733
:104B40006146019B009AFBF7B3FD0E9B8C469B5C74
:104B50000D9A521E0D92137061460143F0D10D98CB
:104B600005A9081A20300190600703D50120000430
:104B7000844300E001270198874201DD381A00E0F4
:104B80000020019900904118029809180498401AD1
:104B90000490E00306D421461A9B199A049800F069
:104BA000B3F94519002706E003A81A9AC05D1999C0
:104BB00090476D1C7F1C02988742F5DBE0030CD503
:104BC00021461A9B199A049800F09EF9451904E0B1
:104BD0001A9A3020199990476D1C0099481E009030
:104BE0000029F5DC08E00D980D990078491C0D911D
:104BF0001A9A199990476D1C0199481E0190002935
:104C0000F1DC63E1092801003031323334353637C5
:104C10003839616263646566000000003031323308
:104C200034353637383941424344454600000000A8
:104C300000F05AF94519761C3078002800D0E2E5DA
:104C400028461BB0F0BD600700D406271898C01D89
:104C5000C108C90048680A680831C30FDB0718910A
:104C6000190001D09CA108E0210501D59BA104E019
:104C7000E10701D09AA100E09AA1430011985B08D6
:104C8000109165280CD006DC452809D046281DD097
:104C9000472841D141E0662818D067283CD13CE044
:104CA0000021112F01DB112000E0781C0191009000
:104CB00008A911A8FFF7E8FC139905910021119AA2
:104CC00015927F1C12980197009150E00120C007B7
:104CD00003900120019008A9009711A8FFF7D4FCC8
:104CE000139A149905920022119B00921298159321
:104CF000059A0192002901D0104602E0791C401863
:104D00000190381A01D5019804E04042401E0090FD
:104D1000781C0190C01B029043E0012F00DA0127AC
:104D20000021112F01DD112000E038460191009093
:104D300008A911A8FFF7A8FC13990591119A002161
:104D4000129815920091019721070CD40599B94248
:104D500001DB019900E00191012904DD159A491E4A
:104D6000515C302906D0B84201DA011D05DA012173
:104D7000029115E00199491EEDE7002805DC009934
:104D8000411800910199091A03E0019A411C9142CE
:104D900000DD01910099401A401C02900120C007DB
:104DA0000390200706D402990198814202DB00207B
:104DB000C043029000206946C87707AF01210398DD
:104DC0000337C907884224D0022011902B2012906B
:104DD000039800280CDA404203902D20129007E03F
:104DE0000A210398FBF784F930317F1E0390397054
:104DF0001199481E11900029F2DC03980028EFD188
:104E0000791E129808703078202108404530BF1E66
:104E1000387006A8C01BC01D0390109800780028A9
:104E200000D00120019941180298C0170918039871
:104E300009180498401A401E0490E00306D4214645
:104E40001A9B199A049800F05FF845191098007899
:104E5000002803D01A9A199990476D1CE00324D5B5
:104E600021461A9B199A049800F04EF845191CE047
:104E70000098002807DB00990598884203DD159803
:104E8000405C199901E0199930201A9A90470098CE
:104E90006D1C401C00900298401E0290002804D116
:104EA0001A9A2E20199990476D1C0199481E01905D
:104EB0000029DDDC05E038781A9A7F1C19999047A3
:104EC0006D1C0399481E03900029F4DC21461A9BAF
:104ED000199A0498ACE600002D0000002B00000099
:104EE0002000000000000000F8B5044600251E4622
:104EF0001746880404D405E039462020B0476D1CCD
:104F0000641EF9D52846F8BDFFB50446002581B0DA
:104F10001E46C80301D5302700E02027880404D5A9
:104F200005E038460399B0476D1C641EF9D5284644
:104F300005B0F0BD0A68531C0B60107070477047D5
:104F4000F0B5002785B0052000905E483C460390F0
:104F500026465D483546019702905C48FCF76EF89E
:104F60005A4801680A68D2435207FBD45748FBF7F6
:104F70007FFE8619554801680A68D2435207FBD460
:104F80005248FBF775FE0419504801680A68D2437D
:104F90005207FBD44D48FBF76BFE45194B480068A0
:104FA0000168C9434907FBD44848FBF761FE0199F2
:104FB0007F1C401801900098FFB28742CDD3304645
:104FC0000099FBF795F8FBF7FDFA414A414BFBF7D7
:104FD000EFF906460F4602990398FBF7DDF8FBF759
:104FE00037FB049003910298FBF732FB02460B4615
:104FF00030463946FBF744FA039B049AFBF7D8F98D
:10500000334A354B5242FBF721F9FBF735FB334E60
:10501000706520460099FBF76BF8FBF7D3FA2C4A32
:105020002C4BFBF7C5F9FBF727FBF06528460099E9
:10503000FBF75EF87F21C9050A2801D2316601E03D
:1050400000203066316600990198FBF751F8FBF7B4
:10505000B9FA074622480191008B0090FBF7B2FA9B
:1050600004460D461A4A1B4B38460199FBF7A0F936
:10507000174A1C4BFBF704FA22462B46FBF78AF92A
:105080000022194BFBF794F9044615480D462030D1
:1050900041880098081AFBF781FA02460B46204621
:1050A0002946FBF7EDF90022104BFBF7CFF8002261
:1050B0000F4BFBF7E5F9FBF7DFFAB065002005B011
:1050C000F0BD00000080FF430000C8422000002027
:1050D0006666666666664A3F9999C93FE80B002096
:1050E000A0F7FF1F66660A400040BF400070A7405F
:1050F00000408F4008B534480B21C17208210026BA
:105100000173FCF71DFDFEF70DFFFEF7D7F9FEF763
:1051100089F9FEF739FA2E4C2C4820600025A5604D
:10512000E560E12025614002A56160600C206562B8
:1051300060612046FDF71CFD002800D0FEE72448F2
:10514000FDF76EFD002800D0FEE7206801682022F0
:10515000114301600920FEF741FA1D484038FDF770
:1051600097FB1320FCF750FDFCF7FEF907461A4C9D
:105170001848206019482060042060607D204001AC
:10518000A06004E0FCF7F0F9C01BFA2802D8E06840
:105190000028F7D1124F2760FEF7ECF81420FBF738
:1051A000A7FFFEF7DBFCFEF751FCFEF727F9FBF744
:1051B00019FC684645702760761C642EFBD1FEF70B
:1051C0006BFE0026F7E70000280C002000380140A5
:1051D000F8000020CCCC0000003000405555000005
:1051E000AAAA0000F0B5012700220A4CBF020A4B10
:1051F0007D0059692140C60700D0394329435961D0
:1052000059694008054E31405961521C072AF0D9AE
:10521000F0BD0000FFFB000000040048FFF70000A5
:1052200070B5184D0024287800282AD168783621D6
:105230004843401900198079FFF7D4FF641CE4B299
:10524000362CF3D368780124401C68700E4D24037B
:10525000002221462846FCF751F901222146284622
:10526000FCF74CF9002261002846FCF747F90022C0
:10527000A1002846FCF742F90022E1002846FCF78D
:105280003DF970BD6805002000040048F8B5614C88
:105290000927A07AFF060026002807D10022402116
:1052A0003846FCF72BF9FEF709FA66745A4841684C
:1052B000C82901DA491C4160584D297800297DD15F
:1052C000A17A012901D0022978D14268062A01DB9E
:1052D000921F426001291ED10221A172782A02DCAC
:1052E000607B092802D9E673082020746E700022C2
:1052F00001213846FCF702F9002202213846FCF76A
:10530000FDF8002208213846FCF7F8F800221021A9
:105310003846FCF7F3F8607C002806D101224021D2
:105320003846FCF7EBF801206074A07B00280BD115
:10533000FFF776FF002204213846FCF7DFF8012250
:1053400020213846FCF7DAF8A07B01280CD1012295
:1053500004213846FCF7D2F8012220213846FCF718
:10536000CDF82089401E2081A07B02280BD1FFF7B9
:1053700057FF012204213846FCF7C0F80022202103
:105380003846FCF7BBF8A07B032810D1002204218B
:105390003846FCF7B3F8002220213846FCF7AEF877
:1053A000FF20A0732089002801D0401E2081207C8E
:1053B000401E0006000E207403D100E00AE0012028
:1053C000E073A07B401CA0732089002802D1A67244
:1053D000FEF774F9124901200968C0430861A07AF8
:1053E000002811D02878002801D1FEF77BF9287811
:1053F000012801D1FEF78CF92878022801D1FEF7A7
:105400009DF92878401C28702878022800D92E7031
:10541000F8BD0000280C00201000002068050020C6
:10542000B800002070B5002305461C46641CE85CEB
:10543000E4B2002800D164235B1CDBB2402BF5D31F
:10544000044E2246334629460348FDF737FD00281F
:10545000F7D170BDFF0F0000F80000200000000031
:10546000000000000000000000000000000000003C
:10547000000000000000000000000000000000002C
:10548000000000000000000000000000000000001C
:10549000000000000000000000000000000000000C
:1054A00000000000000000000000000000000000FC
:1054B00000000000000000000000000000000000EC
:1054C00000000000000000000000000000000000DC
:1054D00000000000000000000000000000000000CC
:1054E00000000000000000000000000000000000BC
:1054F00000000000000000000000000000000000AC
:10550000000000000000000000000000000000009B
:10551000000000000000000000000000000000008B
:10552000000000000000000000000000000000007B
:10553000000000000000000000000000000000006B
:10554000000000000000000000000000000000005B
:10555000000000000000000000000000000000004B
:10556000000000000000000000000000000000003B
:10557000000000000000000000000000000000002B
:10558000000000000000000000000000000000001B
:10559000000000000000000000000000000000000B
:1055A00000000000000000000000000000000000FB
:1055B00000000000000000000000000000000000EB
:1055C00000000000000000000000000000000000DB
:1055D00000000000000000000000000000000000CB
:1055E00000000000000000000000000000000000BB
:1055F00000000000000000000000000000000000AB
:10560000000000000000000000000000000000009A
:10561000000000000000000000000000000000008A
:10562000000000000000000000000000000000007A
:10563000000000000000000000000000000000006A
:10564000000000000000000000000000000000005A
:10565000000000000000000000000000000000004A
:105660000000000000000000000000000000183CE6
:105670003C3C1818180018180000000000C6C6C6E8
:105680004400000000000000000000000000006C6A
:105690006CFE6C6C6CFE6C6C0000000030307CC6E4
:1056A00086067CC0C0C2C67C30300000000000000E
:1056B0000086C6603018CCC6000000000000000064
:1056C000000000000000000000000000000C0C0CB6
:1056D000060000000000000000000000000030187C
:1056E000180C0C0C0C1818300000000000001830CA
:1056F0003060606060303018000000000000000082
:1057000042663CFF1818180000000000000000006E
:10571000181818FF181818000000000000000000FA
:105720000000000000001818180C00000000000025
:10573000000000FF0000000000000000000000006A
:10574000000000000000181800000000000080C0E9
:10575000E070381C0E0703010000000000007CC64A
:10576000C6C6D6D6C6C6C67C0000000000003038CB
:105770003C303030303030FC0000000000007CC68F
:10578000C06030180C86C6FE0000000000007CC619
:10579000C0C078C0C0C0C67C0000000000006070BF
:1057A000786C6666FE6060F0000000000000FE0697
:1057B000060673C0C0C6CE7C000000000000380C96
:1057C00006067EC6C6C6C67C000000000000FEC6F7
:1057D000C0606030301818180000000000007CC65F
:1057E000C6C67CC6C6C6C67C0000000000007CC6DB
:1057F000C6C6C6FCC0C0603C00000000000000003F
:105800000018180000001818000000000000000038
:105810000018180000001818180C000000000060A4
:1058200030180C060C183960000000000000000061
:1058300000007E00007E0000000000000000000666
:105840000C18306030180C060000000000007CC608
:10585000C6603030300030300000000000007CC6F0
:10586000C6F6D6D67606067C00000000000010388A
:105870006CC6C6C6FEC6C6C60000000000007ECCD0
:10588000CCCC7CCCCCCCCC7E00000000000078CC12
:10589000860606060686CC780000000000003E6CF6
:1058A000CCCCCCCCCCCC6C3E000000000000FECCBC
:1058B0008C2C3C2C0C8CCCFE000000000000FECC9C
:1058C0008C2C3C2C0C0C0C1E00000000000078CC32
:1058D000860606F6C6C6ECB8000000000000C6C684
:1058E000C6C6FEC6C6C6C6C60000000000003C18FC
:1058F000181818181818183C000000000000F06074
:10590000606060606066663C000000000000CECC15
:105910006C6C3C6C6CCCCCCE0000000000001E0C0B
:105920000C0C0C0C0C8CCCFE000000000000C6EE31
:10593000FED6C6C6C6C6C6C6000000000000C6C663
:10594000CEDEFEF6E6C6C6C6000000000000386CDB
:10595000C6C6C6C6C6C66C380000000000007ECCB5
:10596000CCCC7C0C0C0C0C1E0000000000007CC693
:10597000C6C6C6C6C6D6F67C60E0000000007ECC77
:10598000CCCC7C6C6CCCCCCE0000000000007CC683
:10599000C60C3860C0C6C67C000000000000FFDBFB
:1059A000991818181818183C000000000000C6C606
:1059B000C6C6C6C6C6C6C67C000000000000C6C675
:1059C000C6C6C6C6C66C3819000000000000C6C6B0
:1059D000C6C6C6D6FE6C6C6C000000000000C3C3D7
:1059E000663C18183C66C3C3000000000000C3C337
:1059F000C3663C181818183C000000000000FEC6E2
:105A0000C26030180C86C6FE0000000000003C0C8E
:105A10000C0C0C0C0C0C0C3C0000000000000103F2
:105A200007031C3870E0C0800000000000003C301C
:105A3000303030303030303C0000000010386CC660
:105A40000000000000000000000000000000000056
:105A50000000000000000000FF00000018183000E7
:105A60000000000000000000000000000000000036
:105A7000003C62607C666666DC00000000000E0C84
:105A80000C3C6CCCCCCCCC760000000000000000BC
:105A9000007CC6060606C67C0000000000007060A0
:105AA00060786C66666666DC00000000000000003E
:105AB000007CC66C7E06C67C000000000000386CCE
:105AC0004C0C3E0C0C0C0C1E0000000000000000F2
:105AD00000DC666666667C60663C000000000E0CBA
