:020000040800F2
:10000000F83E0020D9000008B54F00088D440008D4
:1000100000000000000000000000000000000000E0
:1000200000000000000000000000000091550008E2
:100030000000000000000000B9500008115A00083C
:10004000EB00000800000000EB000008EB000008D7
:10005000EB000008EB000008EB000008EB000008D4
:1000600000000000EB000008EB000008EB000008B7
:10007000EB000008EB000008EB00000800000000A7
:10008000EB000008EB000008EB0000084D5B0008E7
:10009000EB000008EB000008EB000008EB00000894
:1000A000EB000008EB000008EB00000849620008C4
:1000B000EB000008EB00000800000000EB00000867
:1000C0000448854600F04AFC00480047CD6E000811
:1000D000C046C046F83E0020044880470448004718
:1000E000FEE7FEE7FEE7FEE7FEE7FEE7CD5A000883
:1000F000C100000830B50B46014600202022012433
:1001000009E00D46D5409D4205D31D469540491B4B
:100110002546954040191546521E002DF1DC30BD94
:1001200070B500242546002801DA01244042002948
:1001300001DA01254942FFF7DDFFAC4200D0404221
:10014000002C00D0494270BD10B5202A04DB0846BF
:10015000203AD040002110BD0B46D340D04020248F
:10016000A21A91400843194610BD03460B439B0752
:1001700003D009E008C9121F08C0042AFAD203E01C
:100180000B780370401C491C521EF9D27047D2B242
:1001900001E00270401C491EFBD270470022F6E7C6
:1001A00010B513460A4604461946FFF7F0FF2046ED
:1001B00010BD10B5002200E0521C835C8C5CA34291
:1001C00001D1002BF8D1D8B2E1B2401A10BD0346DC
:1001D0000A780270401C491C002AF9D11846704761
:1001E000F8B502464A40D40F42004B0052085B0863
:1001F0009A4202D20246084611464A0023D0C30D55
:100200004A00DDB2120EAD1A202D35DA4902012660
:10021000490AF6058A19002C00D0524220214F1BB2
:100220001146B9402A411018C20D9A4221D0002C23
:1002300017D0012D08DCDA05801AD20F8019D207F9
:10024000DBB200F0D2FAF8BDDA05801A01234000D3
:100250001B06C01880185A428018CA0F1043490064
:1002600007E04908C2071143DA05801A80194008DF
:10027000801800F0B2FAF8BD61000122511A001B8B
:10028000F7E70122D2075140AAE70122D2075040E6
:10029000A6E70000F0B507460846584087B0C00FF3
:1002A000049048000E46590040084908BC1A88418D
:1002B00005D2384631461E4617460B4602465800C0
:1002C000400810434DD0300D039040055900400DBB
:1002D000490D0590401A0290402873DA1803012155
:1002E000000B09050843019004980092002806D0ED
:1002F0001146019A494200209041009101900298D4
:1003000040210A1A0199009800F044FA05460C466B
:100310006B4607CB00F04EFAC0197141039A0E0DDF
:100320000023D71756401A467A40164344D0049A01
:10033000002A2DD0029A012A039A15DC1205C01A50
:10034000914101263605001C7141D20F059ED2074E
:100350000093019202962A46234600F08CFA07B0D9
:10036000F0BD38463146FAE71605234A0F46B21863
:10037000C01AB74101210905001C4F4100187F41F7
:10038000114618187941E20F10436D19644113E0CA
:10039000E2076D0815436408C2071443039A012657
:1003A0001205C01A91413605001C7141CE07400864
:1003B00030434908C01851412A46234600F04EFAFE
:1003C000CDE7FFE7049801224000C117121A00236D
:1003D0008B4104983146C417381AA141EEE730B476
:1003E0000124E407634030BC54E730B40124E4073F
:1003F000614030BC4EE700000000E0FFF0B51FB4E4
:1004000088B00B990998002448400999C00F490009
:1004100049080991C0070B990090490049080B91C0
:1004200009990898A64608431CD00B990A980843D6
:1004300018D0099801244000420D4800410D099848
:1004400024050003000B204309900B980003000BC8
:1004500020430B9050181C4940180022019014466C
:10046000104605E0002001460DB0F0BD032801DA7A
:10047000034600E003239C46C11A0AAE0AE05F006F
:1004800008ADED5B4F00F75B7D430027AA187C4168
:10049000491C5B1E6145F2DD410004AB5A52210448
:1004A000120C0A43240C401C0828DFDB0198029040
:1004B0000099704601910090059B049A079906984F
:1004C00000F0D9F9D0E700000DFCFFFFF0B50C46B5
:1004D0005C4085B0E40FE40703944C0000266408F8
:1004E00059009446490802460296224321D06246AA
:1004F0000A431ED06200570D4A000E032303550D18
:10050000012402462C492405781B1B0B360B40188E
:1005100023432643614600901C46501AB44103D33E
:100520000098401C009002E0921800985B4100285F
:1005300003DA0020014605B0F0BD002001210905C5
:100540000746864611E064461D46141BB54106D396
:100550006546521BB341744607430C43A646CD077C
:1005600040084908284392185B4105460D43EAD1EB
:100570001046184313D06046194650407140084356
:1005800006D06046101AB34106D20122002306E0CD
:1005900000220123DB0702E00122D243531000981E
:1005A00074460105381C6141029C039D0019694194
:1005B00000F054F9BFE70000FD0300000EB5C217BC
:1005C000C10F5040CA0740180021054B0293019209
:1005D00000910A460B4600F04EF903B000BD000042
:1005E000330400000EB505490291002100910A462E
:1005F0000B46019100F03FF903B000BD3304000049
:10060000C20F410040020123400ADB05D207090E58
:10061000C0187F2901DA00207047962903DC962351
:10062000591AC84001E096398840002AF4D0404267
:10063000704700004A0009030123090B1B051943F9
:10064000094B10B5520D9A4201DA002010BD064B3D
:1006500034339A4203DC9A1AFFF776FD10BD034942
:100660005118884010BD0000FF030000CDFBFFFFC4
:10067000C20FD207400040080BD0C10D0723DB0199
:10068000C91840020905400A1143C2084007114336
:10069000704700200146704710B5002904DB012493
:1006A000E40740428C412146002B04DB1C46012319
:1006B000DB075242A3418B4200D1824210BD0000B1
:1006C00010B5002904DB0124E40740428C41214697
:1006D000002B04DB1C460123DB075242A341994255
:1006E00000D1904210BD0000CB0FDB07490010B5D0
:1006F000490802460A4307D00A0D07240903E4010A
:10070000090B121B002A01DC002010BDC900440F98
:100710000C43C100E018D205801800F05EF810BD4F
:100720000122D207002800DB101A002900DB511A31
:1007300081427047F0B51FB40646002082B00546DE
:100740004024019100901BE0019922460F4630465B
:10075000FFF7FAFC049A059B801A994110D31046C2
:100760001946224600F016F8361A8F4101972246A4
:1007700001200021009F00F00DF838184D41009035
:100780002046641E0028DFDC019B00982946324683
:1007900007B0F0BD10B5202A04DB0146203A914095
:1007A000002010BD914020239C1A0346E3401943CA
:1007B000904010BD10B5202A06DBCB170846203A22
:1007C0001041C1170B4306E00B461341D0402024D3
:1007D000A21A91400843194610BD002904DA401CB2
:1007E000490001D140084000704770B40024050C56
:1007F00005D11024000402D1002921D01124050EB6
:1008000001D100020834050F01D10001241D850F1C
:1008100001D18000A41C002801DB4000641C0029D9
:1008200008D020252E1B0D46F540A14000D0012107
:100830002943084301061B1B000ADB1D02D50020CB
:1008400070BC7047DB05181880180029F8DA401CC6
:100850004900F5D170BC40084000704710B5002B2E
:1008600008DA0024401C614192185B411A4301D10F
:100870004008400010BDF0B51FB482B005460C0022
:1008800003D0084605F046FD02E005F043FD2030A8
:100890000246009021462846FFF77CFF049B059AFC
:1008A00004460F4618431143084314D0184610431A
:1008B0001BD0009840210A1A18460599FFF744FCFE
:1008C00005460E46009A05990498FFF763FF084312
:1008D00005D0012004E02046394607B0F0BD0020D5
:1008E000C11705430E432C43374300990E98630507
:1008F000401A7905E40A00220C43FD0A0A3002D5A9
:1009000000200146E9E70105101969410C9C0D9D85
:1009100000196941FFF7A2FFDFE700004A00090361
:100920000123090B1B0519430A4B10B5520D9A42BE
:1009300002DA0020014610BD064B34339A4203DC34
:100940009A1AFFF701FC10BD034BD218FFF722FFE4
:1009500010BD0000FF030000CDFBFFFF064C01258A
:10096000064E05E0E36807CC2B430C3C9847103457
:10097000B442F7D3FFF7A8FBB81E0108D81E010840
:1009800038B5044600250020009020688068800764
:10099000800F01280ED120680068C007C00F002812
:1009A00006D12068C0680121C9030840884201D1EE
:1009B000012000E00020002843D1206880682249FF
:1009C0000840002801D1012000E00020002809D1C2
:1009D000606C102108436064A06C01210843A0648E
:1009E000012038BD206880680121084321688860A3
:1009F000164917480068FFF77DFB009002E0009859
:100A0000401E009000980028F9D101F083FC0546B3
:100A10000EE001F07FFC401B022809D9606C102118
:100A200008436064A06C01210843A0640120D8E75A
:100A300020680068C007C00F0121484048400028D6
:100A4000E7D00020CDE700001700008040420F00F3
:100A50001800002010B5012004F054FD052001F01D
:100A60001DF9012004F05AFD012004F063FD01206E
:100A700004F06CFD002403E0002006F0DBFA641CA7
:100A8000362CF9DB002004F03DFD012004F03AFD96
:100A900010BD0000002003E00021044A1154401C56
:100AA000012149028842F7DB7047000064030020FF
:100AB00070B504460A212046FFF732FB05010A21E2
:100AC0002046FFF72DFB6818C0B270BD92B03021F0
:100AD00008A8017100214171684603F097FE2422A5
:100AE00069466448FFF741FBC2E004F021FF614919
:100AF00014398868FFF7BCFD04465F4A5F4BFFF777
:100B0000CBFD3BD85E48C1785EA004F0D7FA5C48C4
:100B1000C1785CA004F0D2FA5948C17859A004F019
:100B2000CDFA5748C17858A004F0C8FA5448C178A3
:100B300054A004F0C3FA5248C17852A004F0BEFA9F
:100B40004F48C1784FA004F0B9FA4D48C1784DA084
:100B500004F0B4FA4A48C1784AA004F0AFFA01E0C0
:100B600004F0E6FE434914398868FFF781FD044626
:100B7000414A5242484BFFF78FFDF1D94748484957
:100B800008603C488069052839DC3D48C1783DA0B3
:100B900004F094FA3A48C1783AA004F08FFA384841
:100BA000C17838A004F08AFA3548C1783DA004F035
:100BB00085FA3348C17833A004F080FA3048C17810
:100BC00030A004F07BFA2E48C1782EA004F076FA0B
:100BD0002B48C1782BA004F071FA2948C17829A0CC
:100BE00004F06CFA07E0684603F010FE2422694620
:100BF0002048FFF7BAFA1F4880691E28F3DB204817
:100C0000C17809A804F05AFA08A80079401CC1B2BA
:100C100008A8017100797A282ADD302008A9087116
:100C2000684603F0F3FD242269461248FFF79DFA57
:100C300010496839486DFFF71BFD04460D460D4904
:100C400014398868FFF714FD06460B460948806989
:100C5000084949693246019500940291039016A112
:100C60000AA805F043FB0648C1780AA804F026FA52
:100C70003BE700004C0E0020333333333333F73F70
:100C8000640700200A000000456E667269616E64A8
:100C90006F2E2E2E00000000CCCCF83FAAAA000038
:100CA0000030004045737065726120333020536519
:100CB00067756E646F7300002D542530342E3266D4
:100CC0002C562530342E32662C253032643A2530AD
:100CD00032642D0030B597B00024FB48807C00289A
:100CE0007ED0F948807C030005F02BFB08FE98B508
:100CF000051B378711FEFFF7CDFE03F0E1FE002153
:100D0000F14881740020F049123148702EE2EE481B
:100D100012304078092801D1FFF7D8FE00BF00BF8C
:100D200024E2E94812304078072813D1E64914310B
:100D3000C8680021FFF7F4FC03D1E4A006F00AFA2A
:100D400002E0E3A006F006FA0020DF4988741231C1
:100D5000487000E000BF00BF08E2DB481230407876
:100D6000042847D10021D84881740020D649123187
:100D7000487003F0A5FE03E0641C012000F08EFF24
:100D8000D4480078002803D17D2000018442F3DBA1
:100D9000D048007801282CD1CF480078002828D0EE
:100DA000CD484078002824D0CB480078CA494978FB
:100DB000884219DDC8480078012815DBC64800784C
:100DC0000D2811DCC448407801280DDBC24840786A
:100DD0000D2809DCC0480078BB490831C87000E024
:100DE000C5E1BD4840780871BC488088801CBB497B
:100DF000888000E000BF00BFB8E1B34812304078FF
:100E0000082808D1B6A006F0A5F90020AE498874DC
:100E10001231487000E000BF00BFA7E1AA481230BD
:100E20004078012804D0022807D0032810D109E017
:100E30000220A549123148700BE00021ABA004F05C
:100E40003DF906E00020A04988741231487000E0A6
:100E500000BF00BF8AE19C4812304078042804D0CB
:100E600005287DD006287CD100E1002096498874B1
:100E70001231487003F024FE03E0641C012000F0EE
:100E80000DFF94480078002802D199488442F4DB91
:100E90009048007801287DD18F48807B0028FAD1C6
:100EA0008D48007830387D21C90048438649283173
:100EB000886008468168884840783038642250430A
:100EC00008188149283188600846816882488078FE
:100ED00030380A22504308187B4928318860084678
:100EE00081687D48C07800E03FE1303808187649D5
:100EF000283188607848007930380A21484372499F
:100F000028314860084641687348407930380818ED
:100F10006D49283148607048807930380A2148434B
:100F20006949403988660846816E6B48C079303817
:100F300009186548403881666748007A30380A21C8
:100F40004843614928310861084601696248407A8E
:100F5000303808185C49283108615F48807A01E020
:100F60005AE0FFE030380A214843574928314861A8
:100F7000084641695848C07A303808185249283123
:100F800048615548007B30380A2148434E49283192
:100F9000886100E03AE0084681694F48407B30387C
:100FA0000818494928318861142210316846FFF732
:100FB000DCF84548403868300FC803F08FFC01A8C2
:100FC00003F024FC242201A93F482830FFF7CDF884
:100FD0003D48283080693C49283149693A4A2832DD
:100FE0001269394B403B9B6E009301920291039032
:100FF0003548283043683FA182680AA805F076F991
:10100000364880880E303549888004E03348C178FE
:1010100040A004F053F8A6E000212B488174002082
:1010200029491231487001A803F0F0FB242201A9DC
:1010300025482830FFF799F823482830816940690E
:10104000214A28321269204B403B9B6E009301924B
:10105000039102901C482830436833A182680AA893
:1010600005F044F90AA806F075F87CE001A803F041
:10107000CDFB242201A914482830FFF776F8124846
:10108000283040691049283109690F4A283292688E
:101090000092019102900C484038836E68302AA17A
:1010A00042680AA805F022F90C48C1780FA004F0A4
:1010B00005F80A48C1780AA804F000F8002002499F
:1010C0008874123148704EE0240E00204E0000005B
:1010D0005900000010000020640100206407002077
:1010E00046494E49534845440D0A00000A0A00008B
:1010F00010270000253034642F253032642F25302E
:1011000032642020253032643A253032643A25306A
:1011100032640A005365742054696D65204572720B
:101120006F72210A00000000253034642F25303210
:10113000642F253032642D253032643A25303264F4
:101140003A253032640A0000253032642F253032CF
:10115000642F25303464202020253032643A253035
:1011600032640A0000BF00BF00E000BF00BF17B03C
:1011700030BD00BFFEE7000010B588B000248348F2
:10118000007801287ED1824880888249095C6846BF
:1011900001707F488088401C7E49095C6846417028
:1011A0007B488088801C7B49095C68468170784850
:1011B0008088C01C7749095C6846C1707448808883
:1011C000001D7449095C684601710021417172A1DA
:1011D000FEF7EFFF0028D5D16D488088401D6C498F
:1011E000888000BF14E06A4880886A49085C6946C4
:1011F000085567488088401C654988806846005DBE
:10120000202804D100216A46601C11546424641C07
:101210000A2CE8DB00206249887462A16846FEF768
:10122000C8FF002802D101205D4988745FA168468B
:10123000FEF7BFFF002802D10221594881745DA149
:101240006846FEF7B6FF002802D103215448817496
:101250005BA16846FEF7ADFF002802D1042050498B
:1012600088745AA16846FEF7A4FF002802D1052120
:101270004B48817457A16846FEF79BFF002804D1B4
:10128000062000E07EE04649887454A16846FEF7D7
:1012900090FF002802D1072141488174002413E007
:1012A0003B4880883B49085C694608553848808837
:1012B000401C374988806846005D0A2803D1002019
:1012C000694608556424641C1E2CE9DB002034495F
:1012D0001231487043A16846FEF76BFF002803D126
:1012E00001202F491231487040A16846FEF761FF86
:1012F000002803D103202A49123148703DA16846D5
:10130000FEF757FF002803D1042025491231487009
:1013100039A16846FEF74DFF002803D1052020497A
:101320001231487035A16846FEF743FF002803D10B
:1013300006201B491231487032A16846FEF739FF7A
:10134000002803D107201649123148702FA16846A2
:10135000FEF72FFF002803D10820114912314870F1
:101360002EA16846FEF725FF002803D109200C496D
:1013700012314870064880880649085C002801D16F
:1013800003F09EFB0648807C08B010BD10000020D2
:10139000640700206401002023434D442000000026
:1013A000240E002046454544200000004441544599
:1013B00020000000434C525F4255462000000000D0
:1013C00041534B5F53454E53200000005350454559
:1013D000442000004E4F54494659200044454D4F8B
:1013E00020000000535441525400000053544F5009
:1013F0000000000053455400474554005052494EE8
:10140000540000005041504552000000454E445FDA
:101410004F465F5052494E54000000005052494E12
:10142000545F44454D4F5F3000000000002805D157
:101430001021174A11813621164A9170012805D1D1
:101440001021134A11811B21124A9170022805D1E3
:1014500018210F4A11811B210E4A9170032805D1D2
:1014600020220B490A811B210A4A9170042805D1C8
:101470001821074A11811221064A9170052805D1C9
:101480002021034A11811221024A91707047000005
:10149000240E002064070020F8B505460C460026FF
:1014A0000020009092492868884200D103E09149C9
:1014B00091A005F0C0FB2068002832D020680128E8
:1014C0002FD0206802282CD02068032829D020683B
:1014D000042826D02068052823D02068062820D09C
:1014E000206807281DD0206808281AD020680928FD
:1014F00017D020680A2814D020680B2811D0206843
:101500000C280ED020680D280BD020680E2808D09B
:1015100020680F2805D02068102802D020681128E4
:1015200000D104E07349491C73A005F084FB01213C
:1015300009036068884203D0491C6068884200D172
:1015400004E06C49891C6CA005F075FB01210907BA
:10155000A86B884232D0A86B01282FD0A86B022834
:101560002CD0A86B032829D0A86B042826D0A86B00
:10157000052823D0A86B062820D0A86B07281DD0EB
:10158000A068884214D0A068012811D0A068022861
:101590000ED0A06803280BD0A068042808D0A0684B
:1015A000052805D0A068062802D0A068072800D129
:1015B00004E05049891D50A005F03DFB00BF4020CC
:1015C000405D012801D10220F8BD01214020415594
:1015D00000BF2868806804210840800800287BD16B
:1015E0005349606888425BD02868806A227801216C
:1015F000914008432968886201210907A86B884245
:1016000029D0A86B012826D0A86B022823D0A86B6C
:10161000032820D0A86B04281DD0A86B05281AD059
:10162000A86B062817D0A86B072814D0A0682968D3
:1016300049694907490F88420DD028684069C008A8
:10164000C0002968486128684069217A4907490F24
:101650000843296848612068102802D020681128B2
:101660003FD1344880682168102901D1C90401E0C4
:101670000121890508432F4988602068102830D14E
:101680002D492E480068FEF735FD0A214843009099
:1016900002E00098401E009000980028F9D120E058
:1016A0002868816A227801209040814328688162FD
:1016B0002068102802D02068112812D11D488068A7
:1016C0002168102902D1C90402E005E00121890541
:1016D00088431849886004E0686C202108436864E6
:1016E000012600BF00214020415500BF30466BE776
:1016F00000240140510600002E2E2F4472697665A9
:1017000072732F53544D3332463078785F48414CD2
:101710005F4472697665722F5372632F73746D33F1
:1017200032663078785F68616C5F6164632E630055
:10173000011000000027014040420F001800002067
:1017400010B5044605492068884200D103E00449E9
:1017500004A005F070FA2068006C10BD0024014060
:10176000650500002E2E2F447269766572732F5323
:10177000544D3332463078785F48414C5F4472694B
:101780007665722F5372632F73746D3332663078BF
:10179000785F68616C5F6164632E630070B50446B6
:1017A00000260025002C01D1012070BDCE49206803
:1017B000884200D104E0FF217431CCA005F03BFA4F
:1017C0006068002808D0012189076068884203D03A
:1017D00049006068884200D104E0FF217531C3A050
:1017E00005F029FAA068002808D0A068082805D0CC
:1017F000A068102802D0A068182800D104E0FF21BA
:101800007631BAA005F017FAE068002802D0E06847
:10181000202800D104E0FF217731B4A005F00BFAB5
:101820002069012802D02069022800D104E0FF21AC
:101830007831AEA005F0FFF9206A002802D0206AB6
:10184000012800D104E0FF217931A8A005F0F3F9C7
:10185000606A002802D0606A012800D104E0FF21FC
:101860007A31A2A005F0E7F9E06A00280DD0012145
:101870008902E06A884208D04900E06A884204D0C0
:1018800003218902E06A884200D104E0FF217B3114
:1018900096A005F0D0F9A06A00280FD0A06A4028D1
:1018A0000CD0A06AC02809D0FF210131A06A88426B
:1018B00004D0FF21C231A06A884200D104E0FF2198
:1018C0007C318AA005F0B7F9206B002802D0206B8C
:1018D000012800D104E0FF217D3184A005F0ABF99F
:1018E0006069042802D06069082800D104E0FF2163
:1018F0007E317EA005F09FF9606B012802D0606BFD
:10190000002800D104E0FF217F3178A005F093F991
:10191000A069002802D0A069012800D104E0FF21BD
:10192000803172A005F087F9E069002802D0E069F3
:10193000012800D104E0FF2181316CA005F07BF982
:10194000606C002806D1A06400214020015520468B
:1019500000F0ECF8606C1021084000287ED1002EC9
:10196000FCD1206880680421084080080028F5D157
:10197000606C8901884302210843606420688068A4
:101980008007800F01280DD120680068C007C00FB4
:10199000002805D12068C06889030840884201D129
:1019A000012000E0002000280FD12068C068182125
:1019B0008843A16808432168C860206800698000E6
:1019C000800861680843216808612068C06855493B
:1019D00008402168C860A0698003E169C903084321
:1019E000216A49030843616B012902D001210903DF
:1019F00000E000210843E16808432169022901D180
:101A0000042100E000210843216B490008430543FD
:101A1000606A01280ED1206A002803D10120000449
:101A2000054307E0606C202108436064A06C01213D
:101A30000843A064FF21C231A06A884203D0E16A52
:101A4000A06A084305432068C06828432168C8602D
:101A500001210907A06B884216D000E03DE0A06B91
:101A6000012811D0A06B02280ED0A06B03280BD048
:101A7000A06B042808D0A06B052805D0A06B062811
:101A800002D0A06B07280DD120684069C008C000B3
:101A90002168486120684069218F4907490F084340
:101AA000216848612068C0681F490840A84208D1E1
:101AB0000020A064606C0221884301210843606417
:101AC00010E0606C02218843102108436064A06C20
:101AD00001210843A064012604E0606C1021084342
:101AE00060640126304660E6002401402E2E2F441B
:101AF0007269766572732F53544D3332463078785D
:101B00005F48414C5F4472697665722F5372632F50
:101B100073746D3332663078785F68616C5F6164CE
:101B2000632E63001902FEFFE7FF3F8310B586B006
:101B30000446142101A8FEF731FB2349206888429E
:101B40003FD100BF21488069491508431F4988617A
:101B50000846806949150840009000BF00BF00BFDB
:101B60001A48406909020843184948610846406913
:101B7000012149040840009000BF00BF00BF134886
:101B800040694900084311494861084640690121FC
:101B900089040840009000BF00BF8020019003200E
:101BA00002900020039001A90920C00600F056F918
:101BB0000320019002900020039001A9044800F046
:101BC0004DF906B010BD0000002401400010024095
:101BD0000004004870B5044600251F49206888426B
:101BE00000D103E01D491EA005F025F8206880689B
:101BF00004210840800800282BD100BF4020005D50
:101C0000012801D1022070BD01214020015500BFF3
:101C1000E069012803D02046FEF7B2FE0546002DFC
:101C200018D1606C1C490840FF21013108436064F1
:101C30000020A06400BF00214020015500BF1C20EF
:101C40002168086020688068042108432168886052
:101C500000E002252846D6E700240140FB020000F0
:101C60002E2E2F447269766572732F53544D333282
:101C7000463078785F48414C5F4472697665722FD0
:101C80005372632F73746D3332663078785F686196
:101C90006C5F6164632E6300FEF1FFFF31B500F0FD
:101CA00039FB0546009C601C002800D0641C00BF66
:101CB00000F030FB401BA042FAD338BDF8B5044613
:101CC0000E4600250027002000900920C00684420F
:101CD0000BD04D48844208D04C48844205D04C4833
:101CE000844202D04B48844200D104E0FF213F31BE
:101CF00049A004F0A0FFB0B2002804D0300C0004CA
:101D0000002800D104E0FF21403143A004F093FFFC
:101D100074E00120A84030400746002F6DD02068B5
:101D20006A000321914088432060E8088100204632
:101D3000203041586807C20E0F2090408143E808C8
:101D40008200204620308150A0686A000321914023
:101D50008843A06060680121A94088436060E06812
:101D60006A00032191408843E0603A48A90889004D
:101D700040580090A807010F0F20884000990840A4
:101D800000900920C006844201D100200FE01E48C7
:101D9000844201D101200AE01C48844201D1022082
:101DA00005E01B48844201D1032000E00520A9077B
:101DB000090F8840009988421FD1A807010F0F2002
:101DC000884000902348A90889004058009988431A
:101DD0002049AA08920088501F480068B8431E494D
:101DE000086008464068B843486008468068B843C1
:101DF00088600846C068B843C8606D1C3046E8403B
:101E0000002886D1F8BD0000000400480008004802
:101E1000000C0048001400482E2E2F44726976658D
:101E200072732F53544D3332463078785F48414CAB
:101E30005F4472697665722F5372632F73746D33CA
:101E400032663078785F68616C5F6770696F2E63A7
:101E5000000000000800014000040140FEB50646F5
:101E60000C4600270020019000250920C00686426C
:101E70000BD0B748864208D0B648864205D0B6484F
:101E8000864202D0B548864200D103E0C121B4A009
:101E900004F0D1FE208880B2002805D02068000C14
:101EA0000004002800D103E0C221ADA004F0C3FE6D
:101EB0006068002826D06068012823D06068112857
:101EC00020D0606802281DD0606812281AD0B3495B
:101ED0006068884216D0B2496068884212D0B14921
:101EE000606888420ED0B049606888420AD0AF4925
:101EF0006068884206D0AE496068884202D0606857
:101F0000032800D103E0C32195A004F094FEA0684B
:101F1000002805D0A068012802D0A068022800D1BE
:101F200003E0C4218EA004F086FE0AE10121B9403D
:101F3000206808400190019800287DD06068022840
:101F400002D06068122832D10920C00686420BD028
:101F50007F48864208D07F48864205D07E48864228
:101F600002D07E48864200D103E0D3217CA004F059
:101F700062FE2069062800D803E0D42178A004F08E
:101F80005AFEF80881003046203045587807C10EC7
:101F90000F208840294681430D467907C90E2069E4
:101FA00088400543F80881003046203045503568A8
:101FB000790003208840294681430D462079800717
:101FC000800F79008840054335606068012808D09B
:101FD0006068022805D06068112802D06068122865
:101FE00026D1E068002805D0E068012802D0E0682A
:101FF000032800D103E0E82159A004F01CFEB568D5
:10200000790003208840294681430D467900E06825
:1020100088400543B56075680120B8402946814372
:102020000D461021606808400009B84005437560FE
:10203000F5687900032000E082E08840294681436A
:102040000D467900A06888400543F5600121090725
:1020500060680840884273D100BF564880690121FA
:1020600008435449886108468069C007C00F009042
:1020700000BF00BF5048B90889004558B807010F94
:102080000F208840294681430D460920C00686421C
:1020900001D100200FE02E48864201D101200AE044
:1020A0002C48864201D1022005E02B48864201D10E
:1020B000032000E00520B907090F884005433E488A
:1020C000B908890045503D48056829460198814373
:1020D0000D460121090460680840884201D1019839
:1020E00005433648056045682946019881430D46F9
:1020F0000121490460680840884201D101980543E4
:102100002E48456085682946019881430D46012186
:10211000090560680840884201D1019805432748B5
:102120008560C5682946019881430D46012149050E
:1021300060680840884201D1019805431F48C56086
:102140007F1C2068F840002800D0EFE6FEBD0000AC
:102150000004004800080048000C00480014004833
:102160002E2E2F447269766572732F53544D33327D
:10217000463078785F48414C5F4472697665722FCB
:102180005372632F73746D3332663078785F686191
:102190006C5F6770696F2E63000000000000111013
:1021A0000000211000003110000012100000221069
:1021B00000003210001002400800014000040140FD
:1021C00070B506460C46A0B2002804D0200C0004CE
:1021D000002800D104E0FF218E3106A004F02BFD81
:1021E00030692040002801D0012500E00025284664
:1021F00070BD00002E2E2F447269766572732F53C6
:10220000544D3332463078785F48414C5F447269B0
:102210007665722F5372632F73746D333266307824
:10222000785F68616C5F6770696F2E630000000003
:1022300070B505460C46A0B2002804D0200C00045E
:10224000002800D104E0FF21C33103A004F0F3FC17
:1022500068696040686170BD2E2E2F447269766592
:1022600072732F53544D3332463078785F48414C67
:102270005F4472697665722F5372632F73746D3386
:1022800032663078785F68616C5F6770696F2E6363
:102290000000000070B506460C461546A0B20028A6
:1022A00004D0200C0004002800D104E0FF21AD314F
:1022B00009A004F0C0FC002D01D0012D00D104E0E4
:1022C000FF21AE3104A004F0B6FC002D01D0B461B2
:1022D00000E0B46270BD00002E2E2F447269766556
:1022E00072732F53544D3332463078785F48414CE7
:1022F0005F4472697665722F5372632F73746D3306
:1023000032663078785F68616C5F6770696F2E63E2
:102310000000000001480068704700001400002021
:1023200070B504460D4627492068884203D02649E7
:102330002068884200D103E0722124A004F07BFCD5
:10234000002D03D001200003854200D103E073215A
:102350001EA004F070FC4120005D20282FD100BF9A
:102360004020005D012801D1022070BD01214020E4
:10237000015500BF24214120015520680068400814
:102380004000216808602068006801210903884333
:102390002168086020680068284321680860206878
:1023A000006801210843216808602021412001556F
:1023B00000BF00214020015500BF0020D5E70220CA
:1023C000D3E7000000540040005800402E2E2F4458
:1023D0007269766572732F53544D33324630787874
:1023E0005F48414C5F4472697665722F5372632F68
:1023F00073746D3332663078785F68616C5F693210
:10240000635F65782E63000070B504460D460026B4
:1024100024492068884203D023492068884200D19B
:1024200003E0A02121A004F006FC0F2D00D803E05A
:10243000A1211EA004F0FFFB4120005D20282ED129
:1024400000BF4020005D012801D1022070BD0121A4
:102450004020015500BF242141200155206800681B
:102460004008400021680860206806680F210902C2
:1024700030468843064628020643206806602068E6
:10248000006801210843216808602021412001558E
:1024900000BF00214020015500BF0020D6E70220E8
:1024A000D4E7000000540040005800402E2E2F4476
:1024B0007269766572732F53544D33324630787893
:1024C0005F48414C5F4472697665722F5372632F87
:1024D00073746D3332663078785F68616C5F69322F
:1024E000635F65782E63000010B50446002C01D1AF
:1024F000012010BD6B492068884203D06A492068DA
:10250000884200D104E0FF219E3168A004F093FBD3
:102510007449A068884200D804E0FF219F3163A07D
:1025200004F089FBE068012802D0E068022800D1AD
:1025300004E0FF21A0315DA004F07DFB20690028AC
:1025400004D00121C9032069884200D104E0FF21A1
:10255000A13156A004F06FFB6069FF2800D804E0A9
:10256000FF21A23151A004F066FBA069002814D01D
:10257000A069012811D0A06902280ED0A069032803
:102580000BD0A069042808D0A069052805D0A0694F
:10259000062802D0A069072800D104E0FF21A3315A
:1025A00042A004F048FBE069002804D00121C904DE
:1025B000E069884200D104E0FF21A4313BA004F08F
:1025C0003AFB206A002804D001214904206A88428D
:1025D00000D104E0FF21A53134A004F02CFB412000
:1025E000005D002805D1002140200155204600F063
:1025F000FBF9242141200155206800684008400073
:10260000216808600F210906606888432168086115
:10261000206880680121C903884321688860E068D8
:10262000012806D10121C903A068084321688860F8
:1026300005E021218902A068084321688860E068DC
:10264000022802D18002216848602068406826493B
:102650000843216848602068C0680121C903884395
:102660002168C860616920690843A16909020843BB
:102670002168C860216AE069084321680860206811
:10268000006801210843216808600020606420215F
:1026900041200155002020630021422001550020E7
:1026A00027E7000000540040005800402E2E2F4421
:1026B0007269766572732F53544D33324630787891
:1026C0005F48414C5F4472697665722F5372632F85
:1026D00073746D3332663078785F68616C5F69322D
:1026E000632E6300FF03000000800002FFB581B08D
:1026F000044616461F4600254120005D20286ED165
:1027000000BF4020005D012802D1022005B0F0BDCD
:1027100001214020015500BFFFF7FCFD05461923AC
:102720000122D1032046009501F084FF002801D04A
:102730000320EBE7222141200155102142200155C1
:1027400000206064666267856063608DFF280CD935
:10275000FF202085092080020090208DC2B20B0549
:102760002046029901F0F8FE0CE0608D20850920DA
:1027700080020090208DC2B201235B0620460299A0
:1027800001F0EAFE48E02A4620460A9901F07CFF63
:10279000002806D0606C042801D10120B6E7032090
:1027A000B4E72068406AC1B2626A501C606211706E
:1027B000208D401E2085608D401E6085208D002864
:1027C0002AD1608D002827D0009500228021204644
:1027D0000A9B01F02FFF002802D0032096E741E07A
:1027E000608DFF280CD9FF20208500200090208DCF
:1027F000C2B201231B062046029901F0ADFE0BE098
:10280000608D208500200090208DC2B201235B06E0
:102810002046029901F0A0FE608D0028B3D12A461F
:1028200020460A9901F07CFF002806D0606C04283D
:1028300001D101206AE7032068E720202168C861F0
:1028400020684068084908402168486020214120EC
:10285000015500214220015500BF4020015500BF15
:10286000002053E7022051E700E800FEFFB581B0E9
:10287000044616461F4600254120005D20287CD1D5
:1028800000BF4020005D012802D1022005B0F0BD4C
:1028900001214020015500BFFFF73CFD05461923EB
:1028A0000122D1032046009501F0C4FE002801D08A
:1028B0000320EBE721214120015510214220015541
:1028C00000206064666267856063608DFF280BD9B5
:1028D000FF20208548020090208DC2B20B052046C3
:1028E000029901F039FE0CE0608D20850120400343
:1028F0000090208DC2B201235B062046029901F0B0
:102900002BFE47E02A4620460A9901F036FF0028B0
:1029100006D0606C042801D10120B7E70320B5E799
:10292000616A481C6062087821688862608D401E78
:102930006085208D401E2085208D00282AD1608D45
:10294000002827D000950022802120460A9B01F014
:1029500071FE002801D0032098E7608DFF280DD973
:10296000FF20208500200090208DC2B201231B068D
:102970002046029901F0F0FD0CE031E0608D2085E9
:1029800000200090208DC2B201235B0620460299F0
:1029900001F0E2FD608D0028B4D12A4620460A9954
:1029A00001F0BEFE002806D0606C042801D1012091
:1029B0006CE703206AE720202168C861206840682E
:1029C0000849084021684860202141200155002124
:1029D0004220015500BF4020015500BF002055E7AF
:1029E000022053E700E800FE10B586B0044614212B
:1029F00001A8FDF7D3FB1A49206888422DD100BFFA
:102A0000184840690121890408431649486108466D
:102A10004069012189040840009000BF00BFC02028
:102A200001901220029000200390032004900120C6
:102A3000059001A90C48FFF711FA00BF0948C069C9
:102A40000121490508430749C8610846C0690121B9
:102A500049050840009000BF00BF06B010BD00004F
:102A60000054004000100240000400480248006882
:102A7000401C0149086070471400002010B506484A
:102A800000681021084304490860002000F006F89F
:102A900000F018F8002010BD0020024070B5044678
:102AA00000F038FB06467D21C900FDF723FB0546F3
:102AB00000F0DAFF00222146501E00F087F80020C7
:102AC00070BD000008B500BF0D48806901210843B2
:102AD0000B49886108468069C007C00F009000BF9D
:102AE00000BF00BF0846C069090408430449C86123
:102AF0000846C06909040840009000BF00BF08BD37
:102B00000010024010B50446002C00DB03E0BB219E
:102B100005A004F090F800BFE106C90E012088402E
:102B20001049086000BF10BD2E2E2F4472697665D3
:102B300072732F53544D3332463078785F48414C8E
:102B40005F4472697665722F5372632F73746D33AD
:102B500032663078785F68616C5F636F7274657835
:102B60002E63000080E100E010B50446002C00DB7D
:102B700003E0AB2105A004F05EF800BFE106C90E3A
:102B8000012088401049086000BF10BD2E2E2F4440
:102B90007269766572732F53544D333246307878AC
:102BA0005F48414C5F4472697665722F5372632FA0
:102BB00073746D3332663078785F68616C5F636F11
:102BC000727465782E63000000E100E070B5054680
:102BD0000C461646042C00D203E09B2103A004F00F
:102BE0002AF82146284602F0E7F970BD2E2E2F4420
:102BF0007269766572732F53544D3332463078784C
:102C00005F48414C5F4472697665722F5372632F3F
:102C100073746D3332663078785F68616C5F636FB0
:102C2000727465782E630000F8B50446002600250E
:102C300078492068884200D803E07E2176A003F01E
:102C4000FAFF0121090420680840884270D16068B9
:102C500000280CD009126068884208D049006068DA
:102C6000884204D0032109026068884200D103E051
:102C7000842169A003F0DFFF00277648C0690121A5
:102C80000907084000280DD100BF7248C0690843F9
:102C90007049C8610846C06909040840009000BF37
:102CA00000BF01276C480068FF210131084000285F
:102CB00016D169480068084367490860FFF72AFB96
:102CC000064606E0FFF726FB801B642801D9032097
:102CD000F8BD61480068FF21013108400028F1D0AB
:102CE0005C48006A0321090208400546002D2ED0E9
:102CF00060680840A8422AD05648006A88430546C2
:102D00005448006A012109040843524908620846F0
:102D1000006A0121090488434E4908620846056299
:102D2000E807C00F002812D0FFF7F4FA064608E0C3
:102D30001FE0FFF7EFFA801B4849884201D90320C2
:102D4000C6E74448006A022108400028F1D0414803
:102D5000006A032109028843616808433D4908620B
:102D6000012F05D10846C069090488433949C86163
:102D700000BF2078C007C00F002818D0A068002826
:102D800008D0A068012805D0A068022802D0A06859
:102D9000032800D103E0CB211FA003F04CFF2D48F6
:102DA000006B80088000A16808432A49086320213D
:102DB00020680840202812D1E068002802D0E0688E
:102DC000102800D103E0EF2113A003F034FF2148C5
:102DD000006B10218843E16808431E490863012104
:102DE000490420680840884212D12069002802D096
:102DF0002069802800D103E0FA2107A003F01BFF1F
:102E00001448006B802188432169084311490863F5
:102E100000205DE7210003002E2E2F4472697665A5
:102E200072732F53544D3332463078785F48414C9B
:102E30005F4472697665722F5372632F73746D33BA
:102E400032663078785F68616C5F7263635F657863
:102E50002E63000000100240007000408813000044
:102E600070B504460D460026002C00D003E09549BD
:102E700095A003F0E0FE2078C007C00F002809D11C
:102E8000022120680840022804D00421206808405C
:102E9000042800D104E08B49491C8BA003F0CBFE31
:102EA000002D01D0012D00D104E0B721890086A0BA
:102EB00003F0C1FE92480068C007C00FA8420ED2BE
:102EC0008F4800684008400028438D490860084644
:102ED0000068C007C00FA84201D0012070BD0221C8
:102EE00020680840022828D1A068002817D0A068D0
:102EF000802814D0A068902811D0A068A0280ED0F7
:102F0000A068B0280BD0A068C02808D0A068D0283E
:102F100005D0A068E02802D0A068F02800D104E025
:102F20006849193168A003F086FE76484068F021B0
:102F30008843A1680843734948602078C007C00FE0
:102F400000286ED06068002805D06068012802D093
:102F50006068022800D104E05A4920315AA003F0E9
:102F60006AFE6068012808D16648006801214904AA
:102F70000840002815D10120B0E76068022808D178
:102F800060480068012149060840002809D1012055
:102F9000A4E75C48006802210840002801D1012014
:102FA0009CE758484068800880006168084355499C
:102FB0004860FFF7AFF90646606801280FD107E0C7
:102FC000FFF7A8F9801B5049884201D9032085E703
:102FD0004C4840680C2108400428F1D121E0606889
:102FE00002280FD107E0FFF795F9801B4649884278
:102FF00001D9032072E7434840680C2108400828A3
:10300000F1D10EE007E0FFF785F9801B3E498842C9
:1030100001D9032062E73B4840680C2108400028A2
:10302000F1D137480068C007C00FA8420ED9344814
:10303000006840084000284331490860084600689D
:10304000C007C00FA84201D0012047E70421206833
:103050000840042824D1E068002812D00902E06862
:1030600088420ED005210902E068884209D0032178
:103070004902E068884204D007210902E0688842DA
:1030800000D104E00F4989310FA003F0D4FD1D48A1
:103090004068072109028843E168084319494860EC
:1030A00000F050F817494968F02211400909174A01
:1030B000515CC840164908600020FFF7EFFC002073
:1030C0000CE70000DA0200002E2E2F4472697665AC
:1030D00072732F53544D3332463078785F48414CE9
:1030E0005F4472697665722F5372632F73746D3308
:1030F00032663078785F68616C5F7263632E63005C
:10310000002002400010024088130000881E0108C1
:1031100018000020014800687047000018000020D7
:1031200000B5FFF7F7FF0549496807221202114071
:10313000090A034A515CC84000BD0000001002406B
:10314000981E0108F0B589B025A001460EC9C068D7
:1031500005AC0EC4089026A001460EC9C06801AC9B
:103160000EC40490002400260027002500200090B3
:10317000234844680C20204000282AD0042802D08C
:10318000082825D102E01F48009025E00F20800488
:103190002040800C05A90D5C1948C06A0007000F8B
:1031A00001A90E5C0320C0032040012109048842CC
:1031B00006D131461348FCF79DFF6843074605E0FA
:1031C00031461148FCF796FF68430746009703E035
:1031D00000BF0D48009000BF00BF009809B0F0BDCF
:1031E00002030405060708090A0B0C0D0E0F101048
:1031F0000102030405060708090A0B0C0D0E0F1047
:1032000000100240002D310100127A00F8B504468A
:103210000025002C00D004E0FF211331F9A003F0B9
:103220000AFD2068002818D02078C007C00F0028A9
:1032300013D102212068084002280ED008212068FE
:103240000840082809D0042120680840042804D038
:10325000102120680840102800D104E0FF2114311B
:10326000E8A003F0E8FC2078C007C00F002873D066
:103270006068002805D06068012802D060680528D1
:1032800000D104E0FF211A31DEA003F0D4FCEB48AA
:1032900040680C21084004280CD0E84840680840E9
:1032A000082813D1E5484068490308400121090472
:1032B00088420BD1E14800680121490408400028F8
:1032C0006CD06068002869D10120F8BD00BF60683B
:1032D000012807D1D9480068012109040843D749CA
:1032E000086031E0606800280ED1D44800680121F0
:1032F00009048843D149086008460068012189040F
:103300008843CE4908601FE0606805280ED1CB488D
:103310000068012189040843C8490860084600681C
:10332000012109040843C54908600DE0C34800684D
:10333000012109048843C149086008460068012149
:1033400089048843BD49086000BF6068002813D025
:10335000FEF7E0FF054607E020E0FEF7DBFF401B3D
:10336000642801D90320B0E7B4480068012149046A
:1033700008400028F1D011E0FEF7CCFF054606E03A
:10338000FEF7C8FF401B642801D903209DE7AB4826
:1033900000680121490408400028F1D10221206879
:1033A0000840022877D1E068002802D0E0680128B0
:1033B00000D104E0FF214E3192A003F03CFC2069D3
:1033C0001F2800D804E0FF214F318EA003F033FC0A
:1033D0009A4840680C21084000280CD09748406863
:1033E000084008281CD1954840684903084001213D
:1033F000C903884214D1914800680221084000287E
:1034000004D0E068012801D001205EE78B48006805
:10341000F82188432169C9000843884908603AE0D7
:10342000E068002820D085480068012108438349CE
:103430000860FEF76FFF054606E0FEF76BFF401BD6
:10344000022801D9032040E77C4800680221084097
:103450000028F2D079480068F82188432169C90022
:1034600008437649086016E0744800684008400048
:1034700072490860FEF74EFF054606E0FEF74AFF78
:10348000401B022801D903201FE76C480068022175
:1034900008400028F2D108212068084008283DD1C2
:1034A000E069002802D0E069012800D104E0FF2192
:1034B0008F3154A003F0BFFBE069002817D05F48AC
:1034C000406A012108435D494862FEF723FF054633
:1034D00006E0FEF71FFF401B022801D90320F4E697
:1034E0005648406A022108400028F2D016E05348AE
:1034F000406A4008400051494862FEF70BFF05460C
:1035000006E0FEF707FF401B022801D90320DCE696
:103510004A48406A022108400028F2D1042120686C
:10352000084004286DD10026A068002805D0A068B6
:10353000012802D0A068052800D104E0FF21BB319A
:1035400030A003F078FB3D48C0690121090708401D
:1035500000280DD100BF3948C06908433749C86108
:103560000846C06909040840009000BF00BF01265A
:1035700033480068FF2101310840002816D1304847
:10358000006808432E490860FEF7C4FE054606E0C1
:10359000FEF7C0FE401B642801D9032095E62848A9
:1035A0000068FF21013108400028F1D000BFA06869
:1035B000012806D12148006A012108431F490862F9
:1035C0004CE0A06800280CD11C48006A400840006C
:1035D0001A4908620846006A0421884317490862AC
:1035E0003CE0A06805282DD11448006A0421084356
:1035F000124908620846006A012108430F4908621F
:103600002CE05DE02E2E2F447269766572732F5385
:10361000544D3332463078785F48414C5F4472698C
:103620007665722F5372632F73746D333266307800
:10363000785F68616C5F7263632E63000010024004
:1036400000700040E648006A40084000E449086213
:103650000846006A04218843E149086200BFA06867
:10366000002812D0FEF756FE054607E0FEF752FE90
:10367000401BDC49884201D9032026E6D848006A6D
:10368000022108400028F1D011E0FEF743FE054674
:1036900007E0FEF73FFE401BD249884201D90320D4
:1036A00013E6CF48006A022108400028F1D1012E1C
:1036B00005D1CB48C06931078843C949C86100BFFB
:1036C000102120680840102871D16069002806D0B8
:1036D0006069012803D06069401D002800D104E022
:1036E00001214902C04803F0A6FAA0691F2800D8AA
:1036F00003E0BE49BC4803F09EFA6069012826D168
:10370000B748406B04210843B54948630846406BFD
:1037100001210843B2494863FEF7FCFD054606E077
:10372000FEF7F8FD401B022801D90320CDE5AC4887
:10373000406B022108400028F2D0A948406BF821D4
:103740008843A169C9000843A54948632FE060691F
:10375000401D00280FD1A248406B04218843A04996
:1037600048630846406BF8218843A169C9000843B3
:103770009B4948631BE09A48406B042108439849E1
:1037800048630846406B400840004863FEF7C2FDAE
:10379000054606E0FEF7BEFD401B022801D90320C6
:1037A00093E58F48406B022108400028F2D1206A3F
:1037B000002805D0206A012802D0206A022800D102
:1037C00004E09D218900884803F035FA206A00282A
:1037D0007ED0834840680C210840082879D0206AB0
:1037E000022877D10121C903606A884203D04900C9
:1037F000606A884200D104E07C497C317A4803F059
:103800001AFAA06A002844D001218904A06A8842DB
:103810003FD04900A06A88423BD003218904A06AB6
:10382000884236D001210905A06A884231D005219D
:103830008904A06A88422CD00321C904A06A884266
:1038400027D007218904A06A884222D00121490596
:10385000A06A88421DD009218904A06A884218D034
:103860000521C904A06A884213D00B218904A06AEB
:1038700088420ED003210905A06A884209D00D2193
:103880008904A06A884204D00721C904A06A88423A
:1038900000D104E055497D31534803F0CCF9E06A8A
:1038A000002830D0E06A01282DD0E06A02282AD012
:1038B000E06A032827D0E06A042824D0E06A0528BB
:1038C00021D0E06A06281ED0E06A07281BD002E05B
:1038D00083E080E065E0E06A082814D0E06A092807
:1038E00011D0E06A0A280ED0E06A0B280BD0E06AFB
:1038F0000C2808D0E06A0D2805D0E06A0E2802D016
:10390000E06A0F2800D104E038497E31364803F0E0
:1039100092F933480068012109068843304908605C
:10392000FEF7F8FC054606E0FEF7F4FC401B022813
:1039300001D90320C9E42A4800680121490608404A
:103940000028F1D100BF2648C06A00090001E16AE1
:1039500008432349C862616AA06A0843204949684C
:103960007B22D203914308431D49486000BF0846AB
:10397000006801210906084319490860FEF7CAFCDE
:10398000054606E0FEF7C6FC401B022801D90320CD
:103990009BE4134800680121490608400028F1D043
:1039A0001BE00F4800680121090688430C490860A4
:1039B000FEF7B0FC054606E0FEF7ACFC401B022813
:1039C00001D9032081E40648006801214906084026
:1039D0000028F1D101E0012077E4002075E4000027
:1039E00000100240881300000436000801020000A5
:1039F00010B50446042C01D0002C00D104E0FF21B6
:103A0000363109A003F017F9042C06D115480069D6
:103A1000042108431349086105E0124800690421A4
:103A200088431049086110BD2E2E2F4472697665B7
:103A300072732F53544D3332463078785F48414C7F
:103A40005F4472697665722F5372632F73746D339E
:103A500032663078785F68616C5F636F7274657826
:103A60002E63000000E000E070B504462546681EA5
:103A70000949884201D901200CE0681E07494861C4
:103A80000321081F01F098FA0020044988610720EB
:103A90000861002070BD0000FFFFFF0000E000E0B3
:103AA0007047704710B50446002C01D1012010BDAD
:103AB0003549206888421BD034492068884217D095
:103AC00033492068884213D03249206888420FD099
:103AD0003149206888420BD030492068884207D09D
:103AE0002F492068884203D02E492068884200D19F
:103AF00003E0D4212CA003F09EF8A06800280BD08E
:103B0000A068102808D0A068202805D0A068402808
:103B100002D0A068602800D103E0D52122A003F0E4
:103B20008AF82069002808D0FF21013120698842E5
:103B300003D049002069884200D103E0D6211AA0B1
:103B400003F079F8A069002802D0A069802800D18C
:103B500003E0D72114A003F06EF83D20005D00289B
:103B600005D100213C200155204600F039F8022102
:103B70003D200155211D206801F0F2FF01213D206B
:103B80000155002093E70000002C01400004004094
:103B900000100040001400400020004000400140A0
:103BA00000440140004801402E2E2F447269766582
:103BB00072732F53544D3332463078785F48414CFE
:103BC0005F4472697665722F5372632F73746D331D
:103BD00032663078785F68616C5F74696D2E63005F
:103BE00038B504460D492068884215D100BF0C48FD
:103BF000C069891508430A49C8610846C069891522
:103C00000840009000BF00BF002201211320FEF7F2
:103C1000DDFF1320FEF7A8FF38BD000000200040A4
:103C20000010024010B504461949206888421BD094
:103C300018492068884217D017492068884213D055
:103C40001649206888420FD01549206888420BD059
:103C500014492068884207D013492068884203D05D
:103C600012492068884200D104E0FF215F3110A092
:103C700002F0E1FF2068C068012108432168C860A4
:103C8000206800680121084321680860002010BDF9
:103C9000002C0140000400400010004000140040CF
:103CA0000020004000400140004401400048014025
:103CB0002E2E2F447269766572732F53544D333212
:103CC000463078785F48414C5F4472697665722F60
:103CD0005372632F73746D3332663078785F686126
:103CE0006C5F74696D2E630010B50446204920682E
:103CF00088421BD01F492068884217D01E4920687F
:103D0000884213D01D49206888420FD01C49206882
:103D100088420BD01B492068884207D01A49206886
:103D2000884203D019492068884200D104E0FF216D
:103D3000733117A002F07FFF2068C0684008400080
:103D40002168C86000BF2068006A1F490840002839
:103D50000BD12068006A89100840002805D120682E
:103D60000068400840002168086000BF002010BDC6
:103D7000002C0140000400400010004000140040EE
:103D80000020004000400140004401400048014044
:103D90002E2E2F447269766572732F53544D333231
:103DA000463078785F48414C5F4472697665722F7F
:103DB0005372632F73746D3332663078785F686145
:103DC0006C5F74696D2E630011110000704710B5AF
:103DD00004462068006902210840400800281CD0E1
:103DE0002068C06808404008002816D0481F216895
:103DF000086101202077206880698007800F0028F3
:103E000003D02046FFF7E2FF05E0204600F0C3F8AC
:103E1000204600F0C1F800202077206800690421C6
:103E20000840800800281DD02068C068084080082D
:103E3000002817D0C8432168086102202077206835
:103E40008069032109020840002803D02046FFF7BB
:103E5000BDFF05E0204600F09EF8204600F09CF8EB
:103E6000002020772068006908210840C008002849
:103E70001CD02068C0680840C008002816D0C8437D
:103E800021680861042020772068C0698007800FBE
:103E9000002803D02046FFF799FF05E0204600F0F8
:103EA0007AF8204600F078F8002020772068006932
:103EB00010210840000900281DD02068C068084073
:103EC0000009002817D0C84321680861082020771E
:103ED0002068C069032109020840002803D0204659
:103EE000FFF774FF05E0204600F055F8204600F08B
:103EF00053F80020207720680069C007C00F012117
:103F00004840484000280CD02068C068084048401D
:103F10004840002805D0C81E21680861204600F0EE
:103F20003CF82068006980210840C00900280BD0B7
:103F30002068C0680840C009002805D0C84321682F
:103F400008612046FFF7ACFD206800694021084069
:103F5000800900280BD02068C0680840800900282C
:103F600005D0C84321680861204600F017F8206892
:103F7000006920210840400900280BD02068C06853
:103F800008404009002805D0C84321680861204640
:103F9000FFF787FD10BD70477047704770470000FE
:103FA00010B50446002C01D1012010BD1A4920682B
:103FB00088420BD019492068884207D018492068E8
:103FC000884203D017492068884200D104E01121BB
:103FD000490115A002F02FFE242169200155206817
:103FE00000684008400021680860002021680860DF
:103FF0002168486021688860204600F0C5F80020EC
:10400000E0660021692001556A20015500BF682043
:10401000015500BF0020C8E70038014000440040BF
:1040200000480040004C00402E2E2F4472697665F7
:1040300072732F53544D3332463078785F48414C79
:104040005F4472697665722F5372632F73746D3398
:1040500032663078785F68616C5F756172742E6368
:104060000000000010B50446002C01D1012010BD55
:10407000A069002816D03149206888420BD0304909
:104080002068884207D02F492068884203D02E49F3
:104090002068884200D11BE0FF212F312BA002F0C5
:1040A000CAFD15E02549206888420BD024492068C4
:1040B000884207D023492068884203D022492068DB
:1040C000884200D104E0FF21343120A002F0B3FD8A
:1040D0006920005D002805D1002168200155204697
:1040E00000F06EF82421692001552068006840081E
:1040F000400021680860204601F0CEFE012800D172
:10410000B5E7606A002802D0204601F079FD2068FA
:1041100040680121C902884321684860206880689E
:1041200008218843216888602068006801210843CD
:1041300021680860204601F09FFE98E700380140A2
:104140000044004000480040004C00402E2E2F4408
:104150007269766572732F53544D333246307878D6
:104160005F48414C5F4472697665722F5372632FCA
:1041700073746D3332663078785F68616C5F756137
:1041800072742E630000000010B504460A492068CE
:1041900088420FD109488069012189038843074972
:1041A0008861032149020920C006FDF787FD1B2015
:1041B000FEF7A8FC10BD00000038014000100240CE
:1041C00010B586B00446142101A8FBF7E7FF1E498D
:1041D0002068884236D100BF1C48806901218903CC
:1041E00008431A498861084680690121890308400B
:1041F000009000BF00BF00BF14484069C9000843D9
:10420000124948610846406901214904084000906C
:1042100000BF00BF03204002019002200290002056
:104220000390032004900120059001A90920C006F5
:10423000FDF714FE002211461B20FEF7C7FC1B20D1
:10424000FEF792FC06B010BD00380140001002409D
:10425000FFB583B004460D461646002001906A2043
:10426000005D202870D1002D01D0002E02D1012048
:1042700007B0F0BD01210903A068884208D1206978
:10428000002805D1E807C00F002801D00120EFE782
:1042900000BF6820005D012801D10220E8E701216C
:1042A0006820015500BF0020E06622216A200155E8
:1042B000FEF730F80190582006535A20065300BFED
:1042C00001210903A06888420AD12069002803D18E
:1042D00031495C20015320E0FF215C2001531CE0A8
:1042E000A06800280AD12069002803D1FF215C20A2
:1042F000015312E07F215C2001530EE001210907E8
:10430000A068884209D12069002803D17F215C2060
:10431000015302E03F215C20015300BF5C20005BA1
:10432000029029E05A20005B401E81B25A200153BE
:1043300006980090002220212046019B01F04CFFAE
:10434000002802D0032093E724E001210903A0689C
:1043500088420AD12069002807D12F462068808C26
:10436000029908403880AD1C06E02068808C0299D4
:10437000C9B2084028706D1C5A20005B0028D1D1BA
:1043800020216A20015500BF00216820015500BF8F
:1043900000206DE702206BE7FF010000FEB5044638
:1043A0000D4616461F46002001906920005D20281A
:1043B0006AD1002D01D0002E01D10120FEBD0121C6
:1043C0000903A068884208D12069002805D1E807C0
:1043D000C00F002801D00120F0E700BF6820005D79
:1043E000012801D10220E9E701216820015500BF21
:1043F0000020E066212169200155FDF78BFF019027
:10440000502006535220065325E05220005B401EE8
:1044100081B2522001530097002280212046019B47
:1044200001F0DAFE002801D00320C7E701210903CB
:10443000A06888420BD12069002808D10295029D0E
:104440002888C005C00D21680885AD1C03E02878C8
:104450006D1C216808855220005B0028D5DC009780
:10446000002240212046019B01F0B6FE002801D029
:104470000320A3E720216920015500BF0021682007
:10448000015500BF002099E7022097E700BFFEE733
:1044900001688969022211404908002902D00021DF
:1044A0000268916201688969C907C90F01225140F8
:1044B0005140002904D10168896911430268916162
:1044C0007047000070B504460D46164620688069A6
:1044D00010210840000900283AD015E0681C002887
:1044E00012D0002D04D0FDF715FF801BA8420BD978
:1044F00020214120015500214220015500BF4020CC
:10450000015500BF032070BD20688069202108404C
:1045100040090028E2D010202168C86120202168CD
:10452000C8612046FFF7B4FF206840680949084089
:104530002168486004206064202141200155002149
:104540004220015500BF4020015500BF0120DAE79D
:104550000020D8E700E800FEFFB581B004461D4604
:104560000A9E002721492068884203D020492068FC
:10457000884200D103E01F491FA002F05CFB01202C
:104580000006854204D04000854201D0002D00D1B4
:1045900004E01849491C18A002F04DFB01208003DB
:1045A000864209D009208002864205D001204003BE
:1045B000864201D0002E00D104E00E49891C0EA0D5
:1045C00002F039FB206847681948074002988005C7
:1045D000800D03990904FF22120411400843284367
:1045E000304307432068476005B0F0BD00540040E9
:1045F00000580040591200002E2E2F447269766533
:1046000072732F53544D3332463078785F48414CA3
:104610005F4472697665722F5372632F73746D33C2
:1046200032663078785F68616C5F6932632E630050
:10463000009800FCF8B504460E4617461D4616E0E5
:10464000681C002813D0002D05D0FDF763FE0699E5
:10465000401AA8420BD920214120015500214220B7
:10466000015500BF4020015500BF0320F8BD206860
:1046700080693040B04201D1012000E00020B84202
:10468000DED00020F2E7000070B504460D46164665
:104690003AE0324629462046FFF714FF002801D0B1
:1046A000012070BD20688069202108404009002851
:1046B00016D020202168C86120684068174908404A
:1046C00021684860002060642021412001550021BC
:1046D0004220015500BF4020015500BF0120E0E706
:1046E000002D04D0FDF716FE801BA8420CD9606C8B
:1046F0002021084360644120015500BF0021402073
:10470000015500BF0320CCE72068806904210840E0
:1047100080080028BDD00020C3E7000000E800FEAC
:1047200070B504460D4616461EE032462946204620
:10473000FFF7C8FE002801D0012070BD002D04D075
:10474000FDF7E8FD801BA8420ED9606C20210843CC
:1047500060644120015500214220015500BF4020E6
:10476000015500BF0320E8E7206880692021084048
:1047700040090028D9D00020DFE770B504460D4677
:10478000164621E0324629462046FFF79BFE0028C8
:1047900001D0012070BD681C002815D0002D04D068
:1047A000FDF7B8FD801BA8420ED9606C202108439C
:1047B00060644120015500214220015500BF402086
:1047C000015500BF0320E5E7206880690221084009
:1047D00040080028D6D00020DCE7000001B582B0F8
:1047E000FF20012302AADE2100900748FEF73EF8D1
:1047F000FF20012301AADF2100900348FDF776FF87
:10480000684600790EBD00006800002070B58AB0CF
:1048100005460020FFF7E2FF064602F00DFA07907A
:104820000120FFF7DBFF064602F006FA06900220A1
:10483000FFF7D4FF044680202040002805D0A006C2
:10484000800E02F0F9F905900BE0E006C00E02F0D0
:10485000F3F9059020202040002802D005980C3064
:1048600005900320FFF7BAFF064602F0E5F9019034
:104870000420FFF7B3FF064602F0DEF902900520A0
:10488000FFF7ACFF064602F0D7F97D210901401879
:1048900003900620FFF7A2FF064602F0CDF9049030
:1048A000242201A92846FBF760FC0AB070BD000075
:1048B0007CB504460D46684604714571FF2002230D
:1048C00001AADE2100900448FDF7D0FF002800D1A6
:1048D0007CBD0120FCE70000680000200FB410B58B
:1048E0000298202802DA0298002801D101200290C3
:1048F00003980D2802DA0398002801D101200390C3
:1049000037490498884204DD35495131049888427A
:1049100001DB334804900598072801DB002005904F
:10492000304800693C2801DB002006902D48406992
:104930003C2801DB002007902A488069182801DB09
:1049400000200890012000F00DFE0899C8B2FCF785
:10495000AFF8044621460020FFF7AAFF0799C8B226
:10496000FCF7A6F8044621460120FFF7A1FF0699AF
:10497000C8B2FCF79DF88021084304462146022076
:10498000FFF796FF0299C8B2FCF792F80446214659
:104990000320FFF78DFF0399C8B2FCF789F804469E
:1049A00021460420FFF784FF7D2212010499891A11
:1049B000C8B2FCF77DF8044621460520FFF778FFD2
:1049C0000599C8B2FCF774F8044621460620FFF7A3
:1049D0006FFF002000F0C6FD10BC08BC04B01847F3
:1049E000E3070000800E0020002003E00121084AB8
:1049F0001154401C152149028842F7DB0020C043B6
:104A00000449086448640020886440310873704792
:104A1000A40E0020A438002070B500212448817421
:104A2000002023491231487000F002FB0020204989
:104A3000083188701F4908701F481D49C88000252B
:104A40000CE0002407E00022362068431949891D44
:104A500040180255641C362CF5DB6D1C202DF0DB54
:104A60000020144948700220C870002110480181BC
:104A700000200F4908318871FF20487100204872DA
:104A800000220121C9020D48FDF704FC002201218A
:104A900089020A48FDF7FEFB012211030748FDF7D2
:104AA000F9FB00F02BFD00F043FFFBF7D3FF70BDD7
:104AB000240E002064070020881300000004004832
:104AC0000021084A1170002003E00021064A115419
:104AD000401C012149028842F7DB0021034A9180F2
:104AE00070470000100000206401002064070020CF
:104AF0000EB50020009001900290274827490860D9
:104B000040054860002125488160C16001210161A4
:104B10000421416100218161C16101624162FF2183
:104B2000C23181620021C162016301214163FCF74E
:104B300035FE002801D0FCF71CFB07200090012067
:104B4000000301900720029069461448FCF7A4FC7A
:104B5000002801D0FCF70DFB0820009069460F48A3
:104B6000FCF79AFC002801D0FCF703FB0920009019
:104B700069460A48FCF790FC002801D0FCF7F9FAD6
:104B80001020009069460548FCF786FC002801D0FB
:104B9000FCF7EFFA0EBD0000002401401C000020CD
:104BA00000B587B0142102A8FBF7F8FA00BF364819
:104BB0004069012149040843334948610846406976
:104BC000012149040840019000BF00BF00BF2E48EA
:104BD0004069490008432C49486108464069012161
:104BE00089040840019000BF00BF00222749092026
:104BF000C006FDF74FFB002225492648FDF74AFB7A
:104C000001220F2109032348FDF744FB0122110271
:104C10000920C006FDF73EFB1F48029001200390CB
:104C2000002004900320059002A90920C006FDF78A
:104C300015F91A48029001200390002004900320E7
:104C4000059002A91348FDF709F9FF2001300290F1
:104C5000002003900120049002A90E48FDF7FEF801
:104C60000122D1030920C006FDF714FB0122042113
:104C70000848FDF70FFB012211020920C006FDF7CD
:104C800009FB07B000BD0000001002407F8000005B
:104C9000040C0000000400487F81000004FC0000B8
:104CA00010B51348134908601348486000211148A3
:104CB00081600121C1600021016141618161C161A7
:104CC0000162FDF711FC002801D0FCF752FA002127
:104CD0000848FDF725FB002801D0FCF74AFA00211F
:104CE0000448FDF791FB002801D0FCF742FA10BD03
:104CF00000540040680000201A220F0010B504463E
:104D0000230001F01EFB104D090D11151A1E22265D
:104D10002B30353A3F44494D2A492B48C16044E085
:104D20002A492948C16040E029492748C1603CE040
:104D30007D2149012448C16037E026492248C160ED
:104D400033E025492048C1602FE024491E48C16056
:104D50002BE07D2109011C48C16026E04B2109019F
:104D60001948C16021E0912189001748C1601CE009
:104D7000FF21F5311448C16017E0FF21C33112480B
:104D8000C16012E0FF2191310F48C1600DE0FF21A9
:104D90005F310D48C16008E078210B48C16004E034
:104DA0007D21C9000848C16000BF00BF0C4806490A
:104DB00008602F2048600021034881600161FEF7F0
:104DC00071FE10BD581B0000B400002070170000D9
:104DD00088130000AC0D0000B80B0000C4090000EF
:104DE0000020004010B5104810490860E120800202
:104DF000486000210D488160C160016181610C2122
:104E000041610020094948620846FFF7C9F80028B7
:104E100001D0FCF7AEF90548FFF724F9002801D0CE
:104E2000FCF7A7F910BD000000380140F400002095
:104E300000240A25FFF7F0FDFFF7D6FDF0205749C3
:104E40000881012008318870FDF764FA06460FE0FA
:104E5000FDF760FA064602E0514852490860FDF746
:104E600059FA801B04D14D48083080780028F3D1CE
:104E70004A48083080780028EAD18DE048484949FE
:104E800008604948006C4849496C8842F5D046485A
:104E9000406C401C444948640846406C1521490256
:104EA000884202DB0020404948643F48406C3F494B
:104EB000085C3D49896C3C4A50541046806C114650
:104EC000085C04190846806C401C88640846806CA5
:104ED000362861DB002110468164002011464031F4
:104EE00008732E480089401C2C490881002C00D1F1
:104EF0000F25002C00D00A25284808304079A84208
:104F00001CD0264808308079052817D0002C15D1F0
:104F1000FDF700FA064602E0214822490860FDF745
:104F2000F9F9801BC82809D21C4808308079052867
:104F300004D01A48083080780028EDD100241748A2
:104F400008304079A84208D0144908314D71487999
:104F5000FFF7D4FE1648FEF765FE1048083080784B
:104F6000002803D101200D4908318870FDF7D2F9DE
:104F7000064602E00A480B490860FDF7CBF9801BA2
:104F80006A2809D208484030007B002804D1034831
:104F9000083080780028EDD170E70000240E002052
:104FA000AAAA000000300040A4380020A40E00206F
:104FB000B40000207047000010B5002819DA1A4A22
:104FC00003071B0F083B9B089B00D2588307DC0E8E
:104FD000FF23A3409A438B071B0E8407E40EA340D4
:104FE0001A43114B0407240F083CA408A4001A51CB
:104FF00018E00E4A03231B02D21883089B00D258E4
:105000008307DC0EFF23A3409A438B071B0E840704
:10501000E40EA3401A43054B032424021B19840801
:10502000A4001A5110BD00001CED00E000E100E0FA
:1050300010B5012251030748FDF72CF90122910315
:105040000448FDF727F90122D1030248FDF722F9B0
:1050500010BD00000004004810B5002201214903E2
:105060000448FDF717F90122D1030248FDF712F9B0
:1050700010BD00000004004810B50122510305488E
:10508000FDF708F90022012189030248FDF702F922
:1050900010BD00000004004810B50122910305482E
:1050A000FDF7F8F800220121C9030248FDF7F2F8E4
:1050B00010BD00000004004870470000F3B585B043
:1050C0000446002500264649C8680021FBF728FB56
:1050D00001D107B0F0BD0698FCF7A8F9002707E05A
:1050E0004048C05D002801D13D466427781CC7B206
:1050F0003D488078B842F3DC6DE0002D34D1A05DEE
:105100000A2831D139480078002820D134480C3899
:10511000407909281BDC0120344908703448FEF727
:10512000E3FD3349C868FBF75DFA0022314B01917A
:105130000090FBF763F903910290FBF77BFA2C498F
:10514000C8600846FEF7AEFC2948FEF76BFDFBF78A
:10515000A1FC29A12348FBF73AF82248069900F060
:105160004DF8FBF797FCB4E72048007801280DD1F3
:105170001F48FEF7B9FD1A490C394879FFF7BEFD03
:105180001B48FEF74FFD002018490870A05D0A2853
:1051900006D11448069900F031F8FBF77BFC98E73C
:1051A00011488078401EA84209D1A05D0D4948559C
:1051B0000C48069900F022F8FBF76CFC89E70A48D6
:1051C0008078401EA84202DDA05D06494855701C4B
:1051D000C6B2681CC5B2A05D00288ED100BF78E7BA
:1051E000380E002064030020640700201100002016
:1051F000B40000200000E03F20202000FEB506465D
:105200000F469649C8680021FBF78AFA00D1FEBD17
:105210000020029013E0002001900AE000223621D5
:10522000029848438E49411801980A540198401C3D
:10523000019001983628F1DB0298401C02900298F8
:105240002028E8DB3846FCF7F1F80024E2E00025EE
:10525000D9E0305D002806D18148801F84787F48DE
:1052600014380589CEE03B0001F06BF806040F2AE4
:10527000476294C6305D00017A494018425D36208D
:105280006843774940180255BBE0305D40017649DC
:1052900041186800401C0A5C362068437049401879
:1052A00061004254305D40016F4940186900425C22
:1052B000362068436A4941186000401C0A54A0E047
:1052C000305D30214843694941186800401C0A5C40
:1052D000362068436249401861004254305D3021F5
:1052E0004843624940186900425C362068435C4983
:1052F00041186000401C0A5483E0305D80015C4925
:1053000041186800401C0A5C362068435449401824
:1053100061004254305D8001554940186900425C8B
:10532000362068434E4941186000401C0A5468E02A
:10533000305D482148434F49411868002818801CB7
:105340000A5C36206843464940186100611842549F
:10535000305D482148434749411868002818401CDF
:105360000A5C362068433E49411860002018401C02
:105370000A54305D482148433E4940186900691885
:10538000425C362068433649411860002018801C72
:105390000A5436E0305D60214843374941186800BF
:1053A0002818801C0A5C362068432D49401861008B
:1053B00061184254305D602148432F49411868000C
:1053C0002818401C0A5C36206843254941186000B3
:1053D0002018401C0A54305D60214843264940187B
:1053E00069006918425C362068431D494118600015
:1053F0002018801C0A5404E02048184914390881F8
:1054000000BF00BF6D1C154814380089A84200DD9C
:105410001FE7641C1248801F8078A04200DD16E759
:1054200001200E490C398870FCF774FF00900DE0E4
:10543000FCF770FF009000BFFCF76CFF0099401A6A
:1054400004D106480C3880780028F5D103480C3880
:1054500080780028ECD100BFD9E60000380E00208B
:105460006A07002090710008007A0008E08A0008AE
:1054700030A40008F0C50008E8EB0008B80B0000F5
:1054800010B586B000F054FA0720FFF7A7F90446DC
:10549000E007C00F00282BD0002001F001FD1548C7
:1054A00015498860082048601C21134868388166C7
:1054B00003201149C8600A200861322048610A208F
:1054C0008861142210316846FAF74FFE0A4868389E
:1054D00068300FC8FFF702FA0720FFF77FF904468C
:1054E000FD2004408020044321460720FFF7E0F917
:1054F00006B010BDE30700004C0E002010B501F00F
:10550000ADFB10BD10B50446224601210903024837
:10551000FCF7C0FE10BD00000004004810B50446B2
:105520002246012149030248FCF7B4FE10BD0000E9
:105530000004004810B504462246012189030248B0
:10554000FCF7A8FE10BD00000004004810B504469A
:1055500022460121C9030248FCF79CFE10BD000051
:105560000004004870B505460720FFF737F90446E8
:10557000002D04D0012D05D11020044302E0EF20BE
:10558000044000BF00BF21460720FFF791F970BD1E
:10559000704770B504460D46204601F0DBFD2946F4
:1055A0002046FFF78BFD00F0C3F970BDF0B58DB05C
:1055B000002007460446FFF7A1FF8C488C4908608D
:1055C00000218CA0FFF7E5FF002190A0FFF7E1FF8D
:1055D000002193480068FFF7DCFF002191A0FFF74E
:1055E000D8FF9549486DFBF743F805462A460B4618
:1055F00092A1684600F07AFE00216846FFF7C9FFD5
:10560000002192A0FFF7C5FF8B4954318868FBF752
:105610002FF805462A460B4692A1684600F066FE22
:1056200000216846FFF7B5FF002191A0FFF7B1FF09
:10563000814954314868FBF71BF805462A460B465A
:1056400088A1684600F052FE00216846FFF7A1FFDE
:1056500000218CA0FFF79DFF77495431C868FAF705
:10566000CFFF05462A4689A1684600F03FFE00218B
:105670006846FFF78EFF002186A0FFF78AFF6E487D
:105680004830427987A1684600F030FE0021684624
:10569000FFF77FFF002186A0FFF77BFF8A487BA1F1
:1056A0004268684600F022FE00216846FFF771FF5D
:1056B0002021684641700021817084A0FFF769FFB6
:1056C000202409E069460C7000216846FFF761FF5D
:1056D000464847490860641C872CF3DB00217FA003
:1056E000FFF757FF00217EA0FFF753FF202409E0BA
:1056F00069460C7001216846FFF74BFF3B483C4967
:105700000860641C872CF3DB012174A0FFF741FFC4
:10571000022177A0FFF73DFF202409E069460C70C5
:1057200002216846FFF735FF304831490860641CA4
:10573000872CF3DB022169A0FFF72BFF032170A068
:10574000FFF727FF202409E069460C700321684613
:10575000FFF71FFF254826490860641C872CF3DBF0
:1057600003215EA0FFF715FF042169A0FFF711FFD9
:10577000202409E069460C7004216846FFF709FF00
:105780001A481B490860641C872CF3DB042153A0D2
:10579000FFF7FFFE052162A0FFF7FBFE202409E0D2
:1057A00069460C7005216846FFF7F3FE0F48104963
:1057B0000860641C872CF3DB042148A0FFF7E9FE96
:1057C000042146A0FFF7E5FE042144A0FFF7E1FE17
:1057D000042142A0FFF7DDFE042140A0FFF7D9FE1F
:1057E00004213EA0FFF7D5FE0DB0F0BDAAAA00002F
:1057F000003000400D0A0A544F5252455920505271
:10580000494E5445522E0A0D0A0000004649524D99
:10581000574152452056455253494F4E3A200000B9
:1058200000000020496E70757420506F77657220FB
:105830005375706C793A2000E40D00202025322E3B
:105840003366205664630D0A000000005072696ED2
:105850007465722054656D70657261747572653A15
:10586000200000002025322E326620B0430D0A00B1
:105870004350552054656D70657261747572653A58
:105880002000000050617065723A20002025640DF0
:105890000A0000004D6F746F722053706565643AA2
:1058A00020000000202564206D6D2F730D0A00007C
:1058B000436F6D6D756E69636174696F6E205370AF
:1058C0006565643A20000000F40000200A202046AC
:1058D0004F4E54387831360D0A000000200D0A0072
:1058E0000A2020464F4E5431367831360D0A0000DA
:1058F0000A2020464F4E5431367832340D0A0000CB
:105900000A2020464F4E5431367833320D0A0000BB
:105910000A2020464F4E5432347832340D0A0000AB
:105920000A2020464F4E5432347833320D0A00009C
:1059300070B5002431484079032803DB2F484079B3
:105940000D2803DD08202D4948710124FFF7D6FDFD
:105950002A494839486DFAF78BFE0546284A294BF3
:10596000FAF7AEFE0AD2254840792449C978884220
:1059700004D02248C0782149487101241F49483980
:10598000486DFAF775FE054600221F4BFAF784FEB4
:105990000FD21A48407919490979884209D0174825
:1059A0000A304078092804D0144800791349487116
:1059B000012412494839486DFAF75AFE054600227B
:1059C000114BFAF769FE0CD20C480A3040780928CE
:1059D00007D10A484079072803D0072007494871B2
:1059E0000124012C08D10A20044948714879FFF7A5
:1059F00085F90648FEF716F970BD00002C0E002050
:105A00009A99999999991B4000001E40B400002072
:105A100010B5FDF72BF810BD30B595B0302109A8B1
:105A2000FAF7BCFB0020059006900790089014211F
:105A30006846FAF7B3FB0A20099001200C90102069
:105A40000D90012010900220119081031291C10449
:105A500013910021149109A8FDF7D8FB002801D06B
:105A6000FBF787FB07200590022006900020079097
:105A70000890012105A8FDF7F3F9002801D0FBF7F4
:105A800078FB114800900020029003908020049041
:105A90006846FDF7C9F8002801D0FBF76AFBFDF75F
:105AA00039FB05467D21C900FAF724FB0446FDF7C2
:105AB000DBFF0420FDF79CFF00221146501EFDF77E
:105AC00085F815B030BD0000210002001C480068B8
:105AD000012108431A4908600846406819490840EE
